:020000040800F2
:10000000005000204D010008850600088706000802
:10001000890600088B0600088D0600080000000015
:100020000000000000000000000000008F06000833
:1000300091060008000000009306000895060008DD
:100040009501000895010008950100089501000838
:100050009501000895010008950100089501000828
:100060009501000895010008950100089501000818
:100070009501000895010008950100089501000808
:1000800095010008950100089501000895010008F8
:10009000A1060008950100089501000895010008D7
:1000A00095010008950100089501000895010008D8
:1000B00095010008950100089501000895010008C8
:1000C00095010008950100089501000895010008B8
:1000D00095010008950100089501000895010008A8
:1000E0009501000895010008950100080000000036
:1000F0000000000000000000000000000000000000
:0C01000000000000000000005FF808F1A3
:10010C0010B5054C237833B9044B13B10448AFF345
:10011C0000800123237010BD60010020000000004E
:10012C00BC3B000808B5034B1BB103490348AFF3B4
:10013C00008008BD0000000064010020BC3B0008EA
:10014C00002103E00B4B5B58435004310A480B4B26
:10015C0042189A42F6D30A4A02E0002342F8043BC2
:10016C00084B9A42F9D300F097FC03F0FDFC00F029
:10017C007BF97047BC3C00080000002060010020A7
:10018C0060010020FC140020FEE7000084B00F4B3F
:10019C009A6942F020029A619A6902F02002019257
:1001AC00019A9A6942F004029A619A6902F0040277
:1001BC000292029A9A6942F008029A619B6903F0D2
:1001CC0008030393039B04B0704700BF0010024068
:1001DC00FEE7000000B585B01248134B0360002306
:1001EC008360C36043614FF46022C26143600123AA
:1001FC00036100F095FD68B910230193012302936C
:10020C000023039301A9074800F0C8FC30B905B0DE
:10021C005DF804FBDC210548FFF7DAFFE621034813
:10022C00FFF7D6FFF403002000240140003C000837
:10023C0008B50B480B4B03600B4B436000238360EA
:10024C00C3604FF48042026143618361C361036206
:10025C0000F056FF00B908BDFA210448FFF7B8FFBB
:10026C00A003002000540040A0860100003C0008C0
:10027C0000B595B03348344B036000234360836072
:10028C00C36003614361836102F06CF900283AD1C9
:10029C0014A94FF4805341F8103D2A4802F0A3F8FA
:1002AC00002835D1274802F076F9002835D10023F3
:1002BC000E930F930EA9234802F052FA002831D165
:1002CC00602307930022089209920A920B920C92D7
:1002DC000D9207A91B4802F0A9F940BB002300931B
:1002EC0001930293039304934FF4005205920693E7
:1002FC006946144802F008FAF0B9124800F0A4F963
:10030C0015B05DF804FB40F211111048FFF760FFC7
:10031C0040F217110D48FFF75BFF4FF48E710B483D
:10032C00FFF756FF40F223110848FFF751FF40F248
:10033C002F110648FFF74CFF40F23B110348FFF723
:10034C0047FF00BF24040020002C0140003C0008A3
:10035C0000B587B019484FF0804303600023436019
:10036C008360C3600361836102F0FCF8B0B94FF4A1
:10037C0000530293002303930493059302A90F489F
:10038C0002F031F878B900230093019369460B48C9
:10039C0002F0E6F960B907B05DF804FB40F25111C8
:1003AC000748FFF715FF4FF4AD710548FFF710FF35
:1003BC0040F261110248FFF70BFF00BF64040020FC
:1003CC00003C000800B595B001220A924FF480332E
:1003DC000B9300210C910E920222119212934FF466
:1003EC00E01313930AA801F0BFFB60BB0F23059326
:1003FC0002210691002307934FF48063089309931D
:10040C0005A801F0D7FD10BB122301934FF48043D4
:10041C0003930023049301A801F09EFED8B901F0C8
:10042C0085FE0F4BA3FB0030800900F053FD042028
:10043C0000F066FD002211464FF0FF3000F00AFD7F
:10044C0015B05DF804FBA6210648FFF7C1FEB421E8
:10045C000448FFF7BDFEBC210248FFF7B9FE00BF00
:10046C00D34D6210003C000808B500F05FFBFFF7AD
:10047C00A9FFFFF78BFEFFF7ADFEFFF7D9FEFFF7E5
:10048C00F7FEFFF765FF00F00DF90621034800F0B9
:10049C004BF94FF4FA7000F06DFBF6E7283C0008BE
:1004AC0000B583B0244B9A6942F001029A619A69B3
:1004BC0002F001020092009ADA6942F08052DA618D
:1004CC00DB6903F080530193019B032000F0B0FC27
:1004DC00002211466FF00B0000F0BCFC002211460C
:1004EC006FF00A0000F0B6FC002211466FF0090014
:1004FC0000F0B0FC002211466FF0040000F0AAFCE2
:10050C00002211466FF0030000F0A4FC00221146FB
:10051C006FF0010000F09EFC002211464FF0FF30FE
:10052C0000F098FC054A536823F0E06343F0007335
:10053C00536003B05DF804FB001002400000014062
:10054C0002680E4B9A4200D0704700B587B003F595
:10055C006C439A6942F400729A619B6903F40073CC
:10056C000193019B012302930323039302A90448E3
:10057C0000F0DCFC07B05DF804FB00BF0024014078
:10058C000008014002680E4B9A4200D0704700B53B
:10059C0087B0C0230293122303930323059302A96C
:1005AC00084800F0C3FC084BDA6942F40012DA6127
:1005BC00DB6903F400130193019B07B05DF804FBA6
:1005CC0000540040000C01400010024000B587B000
:1005DC000368194A934205D0B3F1804F0DD007B090
:1005EC005DF804FB154B9A6942F400629A619B69B1
:1005FC0003F400630093009BF1E703F50433DA691D
:10060C0042F00102DA61DB6903F001030193019B03
:10061C004FF40043029300230393049302A9084868
:10062C0000F084FC074A536823F4407343F0E06302
:10063C0043F480735360D2E7002C01400010024059
:10064C0000080140000001400268094B9A4200D0AA
:10065C00704700B585B04FF480730093022301936B
:10066C0003936946034800F061FC05B05DF804FB98
:10067C00002C0140000801407047FEE7FEE7FEE752
:10068C00FEE770477047704708B500F061FA00F05C
:10069C0048FC08BD08B5024801F032F908BD00BF9E
:1006AC00980E002010B5094C00220949204602F092
:1006BC006CFE0849204602F07FFE0749204602F0F6
:1006CC001FFE204602F07FFE10BD00BFA4040020D8
:1006DC002800002028010020000000200020704786
:1006EC000020704710B5054C0146204602F017FE5D
:1006FC00204602F031FE002010BD00BFA4040020F3
:10070C0010B5064C00220649204602F000FE0549B1
:10071C00204602F004FE002010BD00BFA4040020FF
:10072C00B00A0020C8060020094BD3F81832D3F8C1
:10073C0014320BB10120704710B50A460146044C27
:10074C00204602F0E4FD204602F0EFFD10BD00BF94
:10075C00A404002002680E4B9A4200D0704700B5EA
:10076C0083B003F5DA33DA6942F40002DA61DB694B
:10077C0003F400030193019B00221146142000F0A6
:10078C0069FB142000F09AFB03B05DF804FB00BF7A
:10079C00005C004008B500F22C41D0F85C0402F07B
:1007AC002BFE08BD08B500EB4113D3F83C22D0F862
:1007BC005C0402F04EFE08BD08B500EB4113DA6B89
:1007CC00D0F85C0402F07AFE08BD08B5D0F85C04E1
:1007DC0002F0FDFE08BD10B504460121D0F85C0402
:1007EC0002F0E3FED4F85C0402F0C0FE10BD000081
:1007FC0010B50446D0F85C0402F0DAFEA36923B10C
:10080C00024A136943F00603136110BD00ED00E0CA
:10081C0008B5D0F85C0402F0D4FE08BD10B504464F
:10082C002048C0F85C44C4F820021F4B0360082326
:10083C004360022383600323C36000238361C3618D
:10084C00036200F011FD30BB182300221146D4F8CE
:10085C00200201F05AF9582300228021D4F82002FA
:10086C0001F053F9C02300228121D4F8200201F0B9
:10087C004CF94FF4887300220121D4F8200201F0C6
:10088C0044F94FF4807300228221D4F8200201F045
:10089C003CF9002010BD4FF497710448FFF798FC09
:1008AC00D2E700BF980E0020005C0040303C0008EE
:1008BC0008B5D0F8200200F042FD18B1022803D090
:1008CC00022008BD0020FCE70120FAE710B51C4609
:1008DC0013462246D0F8200200F05CFD18B1022825
:1008EC0003D0022010BD0020FCE70120FAE708B578
:1008FC00D0F8200200F077FD18B1022803D00220B6
:10090C0008BD0020FCE70120FAE708B5D0F820026A
:10091C0001F0A6F818B1022803D0022008BD00206F
:10092C00FCE70120FAE708B5D0F8200201F0C6F880
:10093C0018B1022803D0022008BD0020FCE70120DA
:10094C00FAE7D0F8203211F0800F06D101F07F01C8
:10095C0003EB411191F82A02704701F07F0103EB80
:10096C00411191F82A00704708B5D0F8200200F028
:10097C00FDFC18B1022803D0022008BD0020FCE7C2
:10098C000120FAE708B5D0F8200200F079FD18B183
:10099C00022803D0022008BD0020FCE70120FAE762
:1009AC0008B5D0F8200200F045FD18B1022803D09C
:1009BC00022008BD0020FCE70120FAE708B5D0F8BA
:1009CC00200200F056FD08BD004870477C01002055
:1009DC007047704712230B800048704710000020AE
:1009EC0004230B80004870472400002008B50A46F9
:1009FC0028B10549054803F058F8034808BD0249D9
:100A0C00024803F052F8F8E7F81200205C3C0008AA
:100A1C0010B5044C0A462146034803F046F820461C
:100A2C0010BD00BFF8120020743C000808B50A463F
:100A3C0028B10549054803F038F8034808BD0249B8
:100A4C00024803F032F8F8E7F8120020883C00085E
:100A5C0008B50A4628B10549054803F026F80348AD
:100A6C0008BD0249024803F020F8F8E7F81200200C
:100A7C00983C000808B50A4628B10549054803F01A
:100A8C0014F8034808BD0249024803F00EF8F8E7D1
:100A9C00F8120020A43C00080F4B1A6842F0010227
:100AAC001A6059680D4A0A405A601A6822F084721A
:100ABC0022F480321A601A6822F480221A605A6872
:100ACC0022F4FE025A604FF41F029A60044B4FF05E
:100ADC0000629A60704700BF001002400000FFF8EF
:100AEC0000ED00E010B504460E4B18784FF47A7305
:100AFC00B3FBF0F30C4A1068B0FBF3F000F0EAF92A
:100B0C0068B90F2C01D901200AE0002221464FF0D0
:100B1C00FF3000F09FF9034B5C60002000E00120E7
:100B2C0010BD00BF480000204400002008B5074A53
:100B3C00136843F010031360032000F079F90020D0
:100B4C00FFF7D0FFFFF7ACFC002008BD00200240EF
:100B5C00034A1168034B1B780B441360704700BFAA
:100B6C00F814002048000020014B1868704700BFA3
:100B7C00F814002038B50446FFF7F6FF0546B4F12B
:100B8C00FF3F02D0044B1B781C44FFF7EDFF401BCA
:100B9C00A042FAD338BD00BF4800002030B482B068
:100BAC000023019390F82430012B00F08B80024637
:100BBC00012380F824304B68062B29D80568686B14
:100BCC0003EB8303053B1F249C4020EA04000C68C4
:100BDC0004FA03F303436B630B68092B38D91568CC
:100BEC00E86803EB43031E3B07249C4020EA040007
:100BFC008C6804FA03F30343EB600B68103B012B86
:100C0C0034D90020002382F8243002B030BC704765
:100C1C000C2B0ED80568286B03EB8303233B1F2496
:100C2C009C4020EA04000C6804FA03F303432B6392
:100C3C00D2E70568E86A03EB8303413B1F249C4021
:100C4C0020EA04000C6804FA03F30343EB62C3E7E5
:100C5C001568286903EB430307249C4020EA040031
:100C6C008C6804FA03F303432B61C6E71368164838
:100C7C00834205D0936A43F0200393620120C1E7BD
:100C8C00986810F4000F1BD1986840F4000098602D
:100C9C000B68102B01D00020B4E70C4B1B680C49DF
:100CAC00A1FB03139B0C03EB83035900019102E09E
:100CBC00019B013B0193019B002BF9D10020A1E783
:100CCC0000209FE70220A0E7002401404400002000
:100CDC0083DE1B4338B503689A6812F0010F01D10B
:100CEC00002038BD04469A6822F001029A60FFF792
:100CFC003BFF054623689B6813F0010F0ED0FFF7EE
:100D0C0033FF401B0228F5D9A36A43F01003A362FA
:100D1C00E36A43F00103E3620120E2E70020E0E72D
:100D2C0000287FD038B50446836A002B33D0204688
:100D3C00FFF7D0FFA36A13F010036DD100286BD11D
:100D4C00A26A22F4885222F0020242F00202A2624B
:100D5C006268E1690A43E56842EA4502A168B1F5B7
:100D6C00807F21D001291CD0616901291FD0256801
:100D7C00696821F469410B436B6021688D682A4BCB
:100D8C002B4013438B60A368B3F5807F20D0012BDD
:100D9C001ED000211FE0C36280F82430FFF7D0FB87
:100DAC00C5E74FF48073DFE74FF48073DCE735B9A8
:100DBC00A169013943EA413343F40063D7E7A16ADF
:100DCC0041F02001A162E16A41F00101E162CEE74C
:100DDC002369013B19052568EB6A23F470030B4367
:100DEC00EB6223689968114B0B409A420BD0A36AB3
:100DFC0023F0120343F01003A362E36A43F00103F0
:100E0C00E36201200DE00023E362A36A23F00303F5
:100E1C0043F00103A36204E0A36A43F01003A3624E
:100E2C00012038BD01207047FDF7E1FFFE0E1FFFCA
:100E3C00074AD36823F4E0631B041B0C000200F484
:100E4C00E060184340F0BF6040F40030D060704761
:100E5C0000ED00E030B4174BDB68C3F30223C3F1A1
:100E6C000704042C28BF04241D1D062D18D9033B90
:100E7C004FF0FF3505FA04F421EA0401994005FA14
:100E8C0003F322EA0303194300280BDB0901C9B25F
:100E9C0000F1604000F5614080F8001330BC7047F1
:100EAC000023E5E700F00F000901C9B2024B195409
:100EBC00F4E700BF00ED00E014ED00E000F01F02CD
:100ECC00400901239340024A42F82030704700BF8A
:100EDC0000E100E00138B0F1807F0AD2064B586087
:100EEC00064AF02182F823100020986007221A602D
:100EFC0070470120704700BF10E000E000ED00E0FB
:100F0C00042805D0054A136823F0040313607047C6
:100F1C00024A136843F004031360704710E000E0CA
:100F2C00704708B5FFF7FCFF08BD0000F0B482B0B5
:100F3C0000263546A1E0002C59D0012C00D1CE68FA
:100F4C00FF2B68D88446FF2B68D8AC00DCF8002057
:100F5C000F27A74022EA070206FA04F42243CCF832
:100F6C0000204A6812F0805F00F086805E4A946927
:100F7C0044F001049461926902F001020192019A19
:100F8C00AC08A71C594A52F8272005F00307BF00EC
:100F9C004FF00F0C0CFA07FC22EA0C0C544A90424E
:100FAC0042D002F5806290427FD002F5806290427E
:100FBC007DD002F58062904234D0042235E04D4F52
:100FCC00BC4214D00BD94C4FBC4210D007F5803723
:100FDC00BC420CD0A7F58017BC42B1D107E0A7F5F5
:100FEC008017BC4203D007F58037BC42A8D18C686F
:100FFC007CB1012C08D042610826A1E7CE680836E6
:10100C009EE7CE680C369BE70261082698E700261F
:10101C0096E7042694E700F1040C94E7A5F1080484
:10102C00A40093E7032200E00022BA4042EA0C023B
:10103C0002342E4F47F824204A6812F4803F38D0EF
:10104C002E4C22681A4322604A6812F4003F36D0B4
:10105C002A4C62681A4362604A6812F4801F34D0CA
:10106C00264CA2681A43A2604A6812F4001F32D0C0
:10107C00224CE2681343E36001350F2D31D8012275
:10108C00AA400B6813409A42F6D14C68122CB8D087
:10109C0095D8022CB2D07FF64EAF032CB7D0112CC2
:1010AC007FF44EAFCE6804364AE70122BDE7022238
:1010BC00BBE7124C226822EA03022260C4E70F4C01
:1010CC00626822EA03026260C6E70C4CA26822EA5C
:1010DC000302A260C8E7094CE26822EA0303E3605A
:1010EC00CAE702B0F0BC704700100240000001409B
:1010FC0000080140000021100000311000040140E4
:10110C00002800F0A28038B5044690F83D30002B42
:10111C004FD0242384F83D302268136823F0010358
:10112C00136001F009F862684A4B9A4246D84A4B60
:10113C0098428CBF00230123002B40F08880474B42
:10114C00A3FB00239B0C226853606168414A9142C7
:10115C003AD801332268136261683E4B99423DD8FC
:10116C00431E4900B3FBF1F30133C3F30B03042B10
:10117C0038BF04232268D361E369216A22680B43D8
:10118C0013602369E16822680B4393606369A1696A
:10119C0022680B43D3602268136843F00103136089
:1011AC0000202064202384F83D30206384F83E0026
:1011BC0038BD80F83C30FFF7E5F9AAE7284B984298
:1011CC008CBF00230123B7E74FF4967202FB03F3A5
:1011DC00244AA2FB03239B090133BBE7A368BBB9D9
:1011EC00421E01EB4105B2FBF5F20132C2F30B02D8
:1011FC00B2FA82F2520932BBC3B9013801EB410396
:10120C00B0FBF3F30133C3F30B0343F40043B1E737
:10121C00421E01EB810505EB8505B2FBF5F20132AF
:10122C00C2F30B02B2FA82F25209E4E7013801EB85
:10123C00810303EB8303B0FBF3F30133C3F30B0321
:10124C0043F4404396E7012394E7012070470120C3
:10125C00AEE700BFA08601007F841E0083DE1B4327
:10126C00FF083D00D34D6210002866D0F0B587B062
:10127C00044690F82934C3B1032384F82934206838
:10128C0001F0A6FA254655F8107B6E460FCD0FC619
:10129C002B683360231D0ECB384601F08AFA0021EF
:1012AC00206801F09FFA002315E080F82834FFF73E
:1012BC0051FAE1E704EB4312012182F8291082F87C
:1012CC0028309386002182F82B109163D1639A1CED
:1012DC005201A15001330E2BECD9002312E004EB88
:1012EC004312002182F8291282F82832938682F860
:1012FC002B12C2F83812C2F83C1203F1120252013E
:10130C00A15001330E2BEAD9254655F8107B6E46B9
:10131C000FCD0FC62B683360231D0ECB384601F062
:10132C0063FA002584F82450012384F829342068BA
:10133C0001F06EFD284607B0F0BD0120704790F813
:10134C002834012B10D010B50446012180F8281444
:10135C00FFF73FFB206801F059FD206801F030FADF
:10136C00002084F8280410BD0220704790F828341F
:10137C00012B0DD010B50446012380F8283480F8D9
:10138C002410006801F03CFD002084F8280410BDF6
:10139C000220704738B54DB2002D1CDB01F07F04E4
:1013AC00640104F50A74044401F07F012170ED0F0F
:1013BC0065702261E37090F82834012B11D005463A
:1013CC00012380F828342146006801F023FA00201C
:1013DC0085F8280438BD01F07F04640128340444E6
:1013EC00E2E70220F6E74AB2002A1BDB01F07F039A
:1013FC005B0103F50A73034401F07F011970D20FEE
:10140C005A7090F82824012A12D010B504460122F3
:10141C0080F828241946006801F090FB002084F81D
:10142C00280410BD01F07F035B0128330344E3E77C
:10143C000220704770B501F07F056C0104F50A714C
:10144C0001440444C4F83C2205F1120252018618EE
:10145C0083500023736084F8293284F8285225B114
:10146C00006801F0F1FC002070BD006801F0ECFC9C
:10147C00F9E701F00F01123100EB41118888704738
:10148C0070B501F07F056C0104F12801014404449E
:10149C00E263AA1C52018618835000237360012357
:1014AC0084F8293084F8285025B1006801F0CCFC70
:1014BC00002070BD006801F0C7FCF9E770B582B080
:1014CC0004460023ADF80630ADF804302068B0F8BF
:1014DC0044309BB2ADF8063013F4004F00F00D828F
:1014EC00BDF8065015F00F0540F0C280BDF806306F
:1014FC0013F0100F50D003889BB2ADF80430BDF838
:10150C00043013F4006F79D1BDF8043013F4004F9C
:10151C00DCD0038823F070031B051B0D03802068AF
:10152C00B0F8503094F8282203EBC203063300EBDA
:10153C004303D3F80034C3F30903C4F84432002B3B
:10154C007CD100212046FFF72DF92368B3F85020F9
:10155C00063203EB4203D4F838123E297CD9C1F38E
:10156C004F1211F01F0F01D1013A92B26FEAC26211
:10157C006FEA524292B2C3F80024226813889BB2DD
:10158C0023F4804323F0700383F4405343F400436B
:10159C0043F08003138099E703889BB223F4E14363
:1015AC0023F070039BB203802268B2F8503094F899
:1015BC00281003EBC103023302EB4303D3F80034CE
:1015CC00C3F309036364E26B1344E3630021204615
:1015DC00FFF7F2F894F82430002B3FF477AF236C2C
:1015EC00002B7FF473AF94F82430226843F080030F
:1015FC00A2F84C30002384F8243067E7B0F8503060
:10160C0094F8282203EBC203063300EB4303D3F810
:10161C000034C3F30903C4F84432B4F82C2204F2A6
:10162C002C4101F06EFD2268138823F070031B051A
:10163C001B0D13802046FFF7ADF847E7B4F82C22BA
:10164C00D4F83C1201F05DFDD4F84422D4F83C32BD
:10165C001344C4F83C3274E7C1F34F0211F0010F8C
:10166C0001D0013292B2920292B2C3F8002484E704
:10167C0030F825309BB2ADF80430BDF8043013F4CB
:10168C00004F35D1BDF8043013F0800F3FF41EAF7E
:10169C00226832F825309BB223F4E14323F0700327
:1016AC009BB222F8253004EB451393F83230002B13
:1016BC0040F0B2802068B0F8503004EB451292F83C
:1016CC00282003EBC203023300EB4303D3F80034AE
:1016DC00C3F30903AA1C04EB42125360002B00F065
:1016EC00C68004EB45118A8DC96B01F098FBBEE0F6
:1016FC0030F8253023F070031B051B0D20F8253026
:10170C0004EB451393F83232D3B92068B0F850305B
:10171C0004EB451292F8282203EBC203063300EBCC
:10172C004303B3F80064C6F3090686B304EB451112
:10173C003346B1F82C22D1F83C1201F0E2FC26E041
:10174C00206804EB451393F8282230F8223013F468
:10175C00804F42D0B0F8503003EBC203023300EBA1
:10176C004303B3F80064C6F3090666BB226804EBB6
:10177C00451393F8281232F8213023F0F0031B059F
:10178C001B0D43F4004343F0C00322F8213005F154
:10179C0012035B01E1184A6832444A6004EB4511BC
:1017AC00D1F83C223244C1F83C22E3581BB1D1F8A9
:1017BC0038128E4228D204EB451393F82812204697
:1017CC00FEF7F0FF5EE704EB45113346B1F82E222D
:1017DC00D1F83C1201F095FCC8E7B0F8503003EB9F
:1017EC00C203063300EB4303B3F80064C6F30906E7
:1017FC00002EBBD004EB45113346B1F83022D1F8A2
:10180C003C1201F07EFCB1E704EB451191F8281273
:10181C002046FFF70FFE35E7206804EB451393F8DD
:10182C00282030F8223013F0400F46D0B0F850305A
:10183C0003EBC203023300EB4303D3F80034C3F3CE
:10184C000903AA1C04EB421253607BBB226804EB15
:10185C00451393F8281032F8213023F0F0031B05C0
:10186C001B0D43F4404343F0800322F821302268DF
:10187C00B2F8503004EB451090F8281003EBC1037C
:10188C00023302EB4303D3F80024C2F30902AB1C6E
:10189C005B01E1184A60C16B0A44C263E35823BB85
:1018AC0090F828102046FEF787FF0FE604EB451151
:1018BC00CA8DC96B01F0B3FAC8E7B0F8503003EB2E
:1018CC00C203063300EB4303D3F80034C3F309031C
:1018DC00AA1C04EB42125360002BB7D004EB451149
:1018EC000A8EC96B01F09BFAB0E704EB451595F82D
:1018FC0028102046FFF7C4FDE8E5002002B070BDBB
:10190C0010B50446006801F085FA10F4004F45D17B
:10191C00206801F07FFA10F4806F43D1206801F049
:10192C0079FA10F4804F08D02268B2F844309BB298
:10193C0023F480439BB2A2F84430206801F06AFA89
:10194C0010F4005F08D02268B2F844309BB223F444
:10195C0000539BB2A2F84430206801F05BFA10F4FB
:10196C00805F30D1206801F055FA10F4006F49D136
:10197C00206801F04FFA10F4007F64D1206801F068
:10198C0049FA10F4807F08D02268B2F844309BB238
:10199C0023F480739BB2A2F8443010BD2046FFF7AD
:1019AC008DFDB5E72268B2F844309BB223F4806316
:1019BC009BB2A2F844302046FEF70DFF00212046D2
:1019CC00FFF7D4FCAAE72268B2F840309BB223F0B0
:1019DC0004039BB2A2F840302268B2F840309BB2AC
:1019EC0023F008039BB2A2F840302046FEF710FF0C
:1019FC002268B2F844309BB223F480539BB2A2F815
:101A0C004430AFE72268B2F8403043F00803A2F844
:101A1C0040302268B2F844309BB223F400639BB28E
:101A2C00A2F844302268B2F8403043F00403A2F824
:101A3C004030206801F0EEF910F4805F98D1204618
:101A4C00FEF7D6FE94E72268B2F844309BB223F43A
:101A5C0000739BB2A2F844302046FEF7B6FE8DE729
:101A6C0038B54AB2002A1BDB4B0103F50A73034459
:101A7C0001249C7001F07F051D70D20F5A7090F8F4
:101A8C002824A24218D00446012280F828241946A2
:101A9C00006801F035F94DB1002084F8280438BDF8
:101AAC0001F07F035B0128330344E1E704F22C418E
:101ABC00206801F0B2F9EFE70220F0E710B54AB266
:101ACC00002A1ADB4B0103F50A73034400249C70B3
:101ADC0001F07F011970D20F5A7090F82824012A56
:101AEC0011D00446012280F828241946006801F020
:101AFC003EF9002084F8280410BD01F07F035B013F
:101B0C0028330344E2E70220F6E711F0800F0CD0F3
:101B1C0001F07F014901283101445AB101228A7236
:101B2C00CB801B0C0B8100207047490101F50A7119
:101B3C000144F2E78A728B80F5E7000082B0084B13
:101B4C001B68084AA2FB03235B0A00FB03F001900D
:101B5C0000BF019B5A1E0192002BF9D102B07047B5
:101B6C0044000020D34D621070B582B00446036867
:101B7C0013F0010F2CD0AB4B5B6803F00C03042B60
:101B8C001DD0A84B5B6803F00C03082B12D06368C4
:101B9C00B3F5803F41D0002B55D103F1804303F5C1
:101BAC0004331A6822F480321A601A6822F48022F4
:101BBC001A6037E09B4B5B6813F4803FE7D0994B7E
:101BCC001B6813F4003F03D06368002B00F0AE8158
:101BDC00236813F0020F76D0924B5B6813F00C0F56
:101BEC005FD0904B5B6803F00C03082B54D0236937
:101BFC00002B00F08A808C4B01221A60FEF7B4FF98
:101C0C000546884B1B6813F0020F75D1FEF7ACFF2D
:101C1C00401B0228F5D903208BE1824A136843F458
:101C2C0080331360636843B3FEF79EFF05467D4B1C
:101C3C001B6813F4003FCBD1FEF796FF401B6428C2
:101C4C00F5D9032075E1B3F5A02F09D0754B1A68AF
:101C5C0022F480321A601A6822F480221A60E1E7BA
:101C6C0003F18043A3F53C331A6842F480221A60D6
:101C7C001A6842F480321A60D4E7FEF775FF054605
:101C8C00684B1B6813F4003FA2D0FEF76DFF401B9E
:101C9C006428F5D903204CE1624B5B6813F4803F58
:101CAC00A5D1604B1B6813F0020F04D02369012BE4
:101CBC0001D001203DE15B4A136823F0F803616910
:101CCC0043EAC1031360236813F0080F32D0A369F1
:101CDC00002B5BD0554B01221A60FEF745FF0546E1
:101CEC00504B5B6A13F0020F21D1FEF73DFF401BF6
:101CFC000228F5D903201CE14A4A136823F0F803A3
:101D0C00616943EAC1031360DDE7474B00221A60A7
:101D1C00FEF72AFF0546434B1B6813F0020FD2D087
:101D2C00FEF722FF401B0228F5D9032001E1012018
:101D3C00FFF704FF236813F0040F00F09780394B72
:101D4C00DB6913F0805F33D1364BDA6942F0805295
:101D5C00DA61DB6903F080530193019B0125344B5D
:101D6C001B6813F4807F25D0E368012B36D0002B41
:101D7C004CD103F1804303F504331A6A22F00102BB
:101D8C001A621A6A22F004021A622CE0274B002213
:101D9C001A60FEF7E9FE0546224B5B6A13F0020F50
:101DAC00C8D0FEF7E1FE401B0228F5D90320C0E0A5
:101DBC000025D4E71E4A136843F480731360FEF7C2
:101DCC00D3FE06461A4B1B6813F4807FCCD1FEF76A
:101DDC00CBFE801B6428F5D90320AAE0114A136AB4
:101DEC0043F001031362E36873B3FEF7BDFE0646CE
:101DFC000C4B1B6A13F0020F37D1FEF7B5FE801B9C
:101E0C0041F288339842F3D9032092E0052B11D08C
:101E1C00044B1A6A22F001021A621A6A22F00402B6
:101E2C001A62E0E700100240000042428004424285
:101E3C0000700040414B1A6A42F004021A621A6A9E
:101E4C0042F001021A62CEE7FEF78EFE06463B4BCD
:101E5C001B6A13F0020F08D0FEF786FE801B41F2BE
:101E6C0088339842F3D9032063E0E5B9E369002B8A
:101E7C005ED0324A526802F00C02082A5BD0022B68
:101E8C0017D02F4B00221A60FEF76EFE04462B4B28
:101E9C001B6813F0007F47D0FEF766FE001B02287C
:101EAC00F5D9032045E0254AD36923F08053D3614B
:101EBC00DCE7234B00221A60FEF756FE05461F4B4B
:101ECC001B6813F0007F06D0FEF74EFE401B022865
:101EDC00F5D903202DE0236AB3F5803F1AD01749BA
:101EEC004B6823F47413226A606A024313434B60F9
:101EFC00134B01221A60FEF737FE04460F4B1B688A
:101F0C0013F0007F0ED1FEF72FFE001B0228F5D92F
:101F1C0003200EE0094A536823F40033A1680B43F5
:101F2C005360DCE7002004E0002002E0012000E028
:101F3C00002002B070BD0120FBE700BF0010024082
:101F4C006000424210B487B0164C94E80F000DF1BB
:101F5C00180C0CE90F00238AADF80430124B5B68A7
:101F6C0003F00C02082A1AD1C3F38342624412F81C
:101F7C00102C13F4803F05D10C4800FB02F007B085
:101F8C0010BC7047084B5B68C3F34043634413F8C1
:101F9C00143C074800FB02F0B0FBF3F0EFE70448F9
:101FAC00EDE700BFEC3B00080010024000093D00CB
:101FBC0000127A00594B1B6803F007038B420CD2BA
:101FCC00564A136823F007030B431360136803F09E
:101FDC0007038B4201D00120704770B5036813F0E2
:101FEC00020F06D04E4A536823F0F0038468234353
:101FFC0053600C460546036813F0010F52D043683A
:10200C00012B23D0022B28D0454A126812F0020F64
:10201C0000F0828042494A6822F0030213434B606D
:10202C00FEF7A2FD06466B68012B1DD0022B2AD0B1
:10203C003B4B5B6813F00C0F34D0FEF795FD801B07
:10204C0041F288339842F3D9032064E0344A126891
:10205C0012F4003FDED101205DE0314A126812F02B
:10206C00007FD7D1012056E02D4B5B6803F00C03A9
:10207C00042B17D0FEF778FD801B41F28833984271
:10208C00F2D9032047E0264B5B6803F00C03082BC6
:10209C0008D0FEF769FD801B41F288339842F2D9D3
:1020AC00032038E01D4B1B6803F00703A3420CD937
:1020BC001A4A136823F0070323431360136803F0D1
:1020CC000703A34201D0012025E02B6813F0040F75
:1020DC0006D0134A536823F4E063E9680B4353605A
:1020EC002B6813F0080F07D00D4A536823F4605384
:1020FC00296943EAC1035360FFF724FF084B5B686F
:10210C00C3F30313074AD35CD840074B1860002075
:10211C00FEF7E8FC002070BD0120FCE70020024027
:10212C0000100240D43B000844000020014B18680A
:10213C00704700BF4400002008B5FFF7F7FF044BC1
:10214C005B68C3F30223034AD35CD84008BD00BFCD
:10215C0000100240E43B000870B582B004460368EE
:10216C0013F0010F34D03E4BDB6913F0805F48D184
:10217C003B4BDA6942F08052DA61DB6903F0805341
:10218C000193019B0125374B1B6813F4807F3AD0D8
:10219C00334B1B6A13F4407311D0626802F4407223
:1021AC009A420CD02E4A136A23F440702E49012611
:1021BC000E6000260E60106213F0010F37D1284A12
:1021CC00136A23F4407361680B431362002D3FD1F3
:1021DC00236813F0020F06D0214A536823F44043BE
:1021EC00A1680B435360236813F0100F35D01C4AC1
:1021FC00536823F48003E1680B435360002002B062
:10220C0070BD0025BFE7174A136843F48073136051
:10221C00FEF7AAFC0646134B1B6813F4807FB7D15C
:10222C00FEF7A2FC801B6428F5D90320E7E7FEF734
:10223C009BFC06460A4B1B6A13F0020FBFD1FEF73C
:10224C0093FC801B41F288339842F3D90320D6E7E4
:10225C00D36923F08053D361BAE70020CFE700BFE6
:10226C0000100240007000404004424270B4036A07
:10227C0023F001030362036A4268846924F0730447
:10228C000D6845EA040623F002048B6823430D4DC8
:10229C00A84209D00B4DA8420DD0426086614A6815
:1022AC004263036270BC704723F00803CC6823437D
:1022BC0023F00403EEE722F440724C6914438A695C
:1022CC002243EAE7002C014030B4036A23F4807304
:1022DC000362036A4268C46924F073040D682C43DA
:1022EC0023F400738D6843EA05230F4DA84209D0EF
:1022FC000D4DA8420ED04260C4614A68C2630362AD
:10230C0030BC704723F40063CD6843EA052323F403
:10231C008063EDE722F440524D6942EA05128D6963
:10232C0042EA0512E7E700BF002C014030B4036A13
:10233C0023F480530362036A4468C26922F4E642C0
:10234C000D6842EA052223F400538D6843EA0533F5
:10235C00074DA84206D04460C2614A680264036219
:10236C0030BC704724F480444D6944EA8514F2E78C
:10237C00002C014010B4036A046A24F001040462C6
:10238C00846924F0F00444EA021223F00A030B439C
:10239C008261036210BC704710B4036A23F010030F
:1023AC0003628469036A24F4704444EA023223F021
:1023BC00A00343EA01138261036210BC7047836877
:1023CC0023F0700341F0070119438160704710B48A
:1023DC00846824F47F4442EA03230B432343836041
:1023EC0010BC7047704790F83C30012B7DD010B575
:1023FC000446012380F83C30022380F83D3002680B
:10240C00936823F47F4323F0770393600B68402B8E
:10241C0057D010D9702B3ED01FD8502B47D0602BE3
:10242C0032D1CA6849680068FFF7B6FF602120689E
:10243C00FFF7C5FF28E0102B4DD008D9202B4FD02B
:10244C00302B21D130210068FFF7B9FF1CE0DBB93C
:10245C0000210068FFF7B3FF16E0B3F5805F0ED0E4
:10246C00B3F5005F10D1CB684A6889680068FFF744
:10247C00AEFF2268936843F48043936004E00268E3
:10248C00936823F007039360012384F83D30002008
:10249C0084F83C0010BDCB684A6889680068FFF777
:1024AC0096FF2268936843F077039360ECE7CA6861
:1024BC0049680068FFF75EFF50212068FFF77FFF37
:1024CC00E2E7CA6849680068FFF754FF40212068BA
:1024DC00FFF775FFD8E710210068FFF770FFD3E70F
:1024EC0020210068FFF76BFFCEE702207047000049
:1024FC0003681B4A90420AD0B0F1804F07D0A2F576
:10250C009432904203D002F58062904203D123F0C2
:10251C0070034A681343124A90420AD0B0F1804FBC
:10252C0007D0A2F59432904203D002F5806290421B
:10253C0003D123F44073CA68134323F080034A6920
:10254C00134303608B68C3620B688362044B98422D
:10255C0002D00123436170470B690363F9E700BFA5
:10256C00002C0140A8B110B5044690F83D305BB189
:10257C00022384F83D30211D2068FFF7B9FF0123A9
:10258C0084F83D30002010BD80F83C30FEF71EF87A
:10259C00EEE701207047A8B110B5044690F83D3025
:1025AC005BB1022384F83D30211D2068FFF7A0FFAA
:1025BC00012384F83D30002010BD80F83C30FFF73B
:1025CC0011FFEEE70120704730B4036A23F01003CB
:1025DC000362036A4468826922F4E6420D6842EAA7
:1025EC00052223F020038D6843EA05130E4DA84203
:1025FC0009D00D4DA8420ED0446082614A688263B6
:10260C00036230BC704723F08003CD6843EA0513A6
:10261C0023F04003EDE724F440644D6944EA85045B
:10262C008D6944EA8504E7E7002C014038B590F841
:10263C003C30012B66D00D460446012380F83C301B
:10264C00022380F83D300C2A1AD8DFE802F0071973
:10265C001919201919193419191947000068FFF7AD
:10266C0005FE2268936943F008039361226893691D
:10267C0023F0040393612268936929690B439361E6
:10268C00012384F83D30002084F83C0038BD0068FC
:10269C00FFF79AFF2268936943F400639361226801
:1026AC00936923F48063936122689369296943EAEF
:1026BC0001239361E4E70068FFF706FE2268D36903
:1026CC0043F00803D3612268D36923F00403D36178
:1026DC002268D36929690B43D361D1E70068FFF7FE
:1026EC0025FE2268D36943F40063D3612268D36961
:1026FC0023F48063D3612268D369296943EA0123F7
:10270C00D361BDE70220C1E790F83C30012B25D006
:10271C00012380F83C30CB6823F440738A68134360
:10272C0023F480634A68134323F400630A68134359
:10273C0023F480530A69134323F400534A69134367
:10274C0023F480438A69134323F400431343026840
:10275C005364002380F83C301846704702207047C1
:10276C0090F83C30012B22D030B4012280F83C2070
:10277C00022380F83D300468636823F070036360C3
:10278C00046863680D682B4363600468A36823F0D6
:10279C008003A3600468A36849680B43A36080F8B6
:1027AC003D20002380F83C30184630BC7047022096
:1027BC00704784B001A880E80E00002004B0704778
:1027CC00B0F8403043F43F43A0F84030002070474D
:1027DC00B0F8403023F474535B045B0CA0F8403029
:1027EC00002070470020704784B038B505AC84E8F1
:1027FC000E000123A0F840300024A0F84040A0F8BF
:10280C004440A0F85040FFF7DBFF2046BDE83840BD
:10281C0004B0704710B4CB78032B0FD8DFE803F06B
:10282C00026D54600A7830F822309BB223F4EC43EA
:10283C0023F0700343F4007320F822300A7830F848
:10284C00223023F0F0031B051B0D134343F400430C
:10285C0043F0800320F822308B7A002B40F0AF80BD
:10286C004B78002B56D08A885208B0F850300C7830
:10287C0003EBC40300EB43035200C3F800240A78B3
:10288C0030F8223013F0400F0BD030F8223023F008
:10289C00F0031B051B0D43F4004343F0C00320F869
:1028AC0022300A7830F822309BB223F4E04323F034
:1028BC00400383F0200343F4004343F0800320F8EB
:1028CC002230002010BC70470A7830F822309BB2BE
:1028DC0023F4EC4323F070039BB220F82230ADE7D5
:1028EC000A7830F822309BB223F4EC4323F07003C7
:1028FC0043F4C06320F82230A0E70A7830F8223085
:10290C009BB223F4EC4323F0700343F4806320F870
:10291C00223093E78A885208B0F850300C7803EBD9
:10292C00C403043300EB43035200C3F80024B0F893
:10293C0050300A7803EBC203063300EB43030C69F7
:10294C003E2C30D9C4F34F1214F01F0F01D1013AB1
:10295C0092B26FEAC2626FEA524292B2C3F800249A
:10296C000A7830F8223013F4804F0BD030F8223034
:10297C0023F0F0031B051B0D43F4404343F080038D
:10298C0020F822300A7830F822309BB223F48043AE
:10299C0023F0700383F4405343F4004343F080036B
:1029AC0020F822308DE7C4F34F0214F0010F01D050
:1029BC00013292B2920292B2C3F80024D0E70A78A4
:1029CC0030F8223023F4F8731B051B0D43F401433C
:1029DC0043F0800320F82230CA885208B0F85030F7
:1029EC000C7803EBC40300EB43035200C3F8002440
:1029FC000A895208B0F850300C7803EBC403043346
:102A0C0000EB43035200C3F800244B78002B4BD14E
:102A1C000A7830F8223013F4804F0BD030F8223083
:102A2C0023F0F0031B051B0D43F4404343F08003DC
:102A3C0020F822300A7830F8223013F0400F0BD0F7
:102A4C0030F8223023F0F0031B051B0D43F4004338
:102A5C0043F0C00320F822300A7830F8223023F0FB
:102A6C00F0031B051B0D43F4004343F0C00320F897
:102A7C0022300A7830F822309BB223F4804323F0C2
:102A8C00700383F4405348F28004234320F822302F
:102A9C000A7830F822309BB223F4E04323F0400351
:102AAC00234320F822300CE70A7830F8223013F454
:102ABC00804F0BD030F8223023F0F0031B051B0D98
:102ACC0043F4404343F0800320F822300A7830F876
:102ADC00223013F0400F0BD030F8223023F0F003EB
:102AEC001B051B0D43F4004343F0C00320F82230B8
:102AFC000A7830F8223023F0F0031B051B0D43F449
:102B0C00404343F0800320F822300B7830F8232028
:102B1C0092B222F4E04222F0400248F280042243B6
:102B2C0020F823200A7830F822309BB223F480431B
:102B3C0023F07003234320F82230C2E68B7A002B5B
:102B4C0044D14B780BB30A7830F8223013F0400F95
:102B5C000BD030F8223023F0F0031B051B0D43F48F
:102B6C00004343F0C00320F822300A7830F82230BA
:102B7C009BB223F4E04323F0400343F4004343F0BF
:102B8C00800320F82230002070470A7830F8223079
:102B9C0013F4804F0BD030F8223023F0F0031B05D8
:102BAC001B0D43F4404343F0800320F822300A7895
:102BBC0030F822309BB223F4804323F0700343F4AB
:102BCC00004343F0800320F82230DCE710B44B784C
:102BDC00002B4BD10A7830F8223013F4804F0BD0F5
:102BEC0030F8223023F0F0031B051B0D43F4404357
:102BFC0043F0800320F822300A7830F8223013F0AA
:102C0C00400F0BD030F8223023F0F0031B051B0DC6
:102C1C0043F4004343F0C00320F822300A7830F824
:102C2C00223023F0F0031B051B0D43F4004343F04B
:102C3C00C00320F822300B7830F8232092B222F413
:102C4C00804222F0700248F28004224320F82320B4
:102C5C000A7830F822309BB223F4E04323F040038F
:102C6C00234320F82230002010BC70470A7830F83B
:102C7C00223013F4804F0BD030F8223023F0F003C5
:102C8C001B051B0D43F4404343F0800320F8223016
:102C9C000A7830F8223013F0400F0BD030F8223085
:102CAC0023F0F0031B051B0D43F4004343F0C0035A
:102CBC0020F822300A7830F8223023F0F0031B057C
:102CCC001B0D43F4404343F0800320F822300B7873
:102CDC0030F8232092B222F4E04222F0400248F273
:102CEC008004224320F823200A7830F822309BB24B
:102CFC0023F4804323F07003234320F82230B2E7FF
:102D0C000A788AB14B7813BB30F822309BB223F48B
:102D1C00804323F0700383F4805343F4004343F067
:102D2C00800320F8223010E030F822309BB223F4DC
:102D3C00804323F0400383F4805383F0100343F467
:102D4C00004343F0800320F822300020704730F815
:102D5C0022309BB223F4E04323F0400383F01003B2
:102D6C0043F4004343F0800320F82230EDE74B7826
:102D7C001BB30A7830F8223013F0400F0BD030F828
:102D8C00223023F0F0031B051B0D43F4004343F0EA
:102D9C00C00320F822300A7830F822309BB223F49A
:102DAC00E04323F0400383F0300343F4004343F04B
:102DBC00800320F82230002070470A7830F8223047
:102DCC0013F4804F0BD030F8223023F0F0031B05A6
:102DDC001B0D43F4404343F0800320F822300A7863
:102DEC0030F822309BB223F4804323F0700383F439
:102DFC00405343F4004343F0800320F82230DAE7D9
:102E0C0011B98023A0F84C30002070470020704787
:102E1C0000207047B0F84400704700207047013321
:102E2C005B1000EB420202F5806263B110B40C78C7
:102E3C00487844EA002422F8044B0231013B002B71
:102E4C00F5D110BC70477047F8B58A694D78012DE3
:102E5C0034D00B69934280F0EA80D21A8A618A7A64
:102E6C00002A40F0F480B0F850200C7802EBC40239
:102E7C00063200EB42023E2B40F2DD80C3F34F14CE
:102E8C0013F01F0F01D1013CA4B26FEAC4646FEAC6
:102E9C005444A4B2C2F800440A7830F822309BB2F1
:102EAC0023F4804323F0700383F4405343F4004332
:102EBC0043F0800320F822300020F8BD0F699742C0
:102ECC0025D2D21B8A610E4604468B7A1BB30B7833
:102EDC0030F8232012F0400F69D0002D37D1B0F814
:102EEC00502002EBC303063300EB43033E2F22D9E1
:102EFC00C7F34F1217F01F0F01D1013A92B26FEACC
:102F0C00C2626FEA524292B2C3F8002428E0002356
:102F1C008B611746D7E7BBB28A884969FFF77FFFF9
:102F2C00B4F85030327803EBC203023304EB4303A2
:102F3C00C3F800742AE0C7F34F0217F0010F01D059
:102F4C00013292B2920292B2C3F8002408E0B0F8B7
:102F5C00502002EBC303023300EB4303C3F80074AD
:102F6C003289BBB271692046FFF759FF7378002B89
:102F7C004DD1327834F8223023F0F0031B051B0DB1
:102F8C0043F4004343F0C00324F82230327834F881
:102F9C0022309BB223F4E04323F0400383F0300350
:102FAC0043F4004343F0800324F8223084E71DBB34
:102FBC00B0F8502002EBC303023300EB43033E2F67
:102FCC000ED9C7F34F1217F01F0F01D1013A92B26D
:102FDC006FEAC2626FEA524292B2C3F8002414E064
:102FEC00C7F34F0217F0010F01D0013292B29202D7
:102FFC0092B2C3F8002408E0B0F8502002EBC303EF
:10300C00023300EB4303C3F80074F288A9E7012BE9
:10301C00BCD1327834F8223023F0F0031B051B0DA1
:10302C0043F4404343F0800324F82230AEE70023FE
:10303C008B61134613E7C3F34F0413F0010F01D058
:10304C000134A4B2A402A4B2C2F8004424E7BDB96E
:10305C00B0F850200C7802EBC402023200EB4202B2
:10306C003E2B28D9C3F34F1413F01F0F01D1013C91
:10307C00A4B26FEAC4646FEA5444A4B2C2F8004428
:10308C004A7882BBB0F850200C7802EBC4020632AE
:10309C0000EB42023E2B1AD9C3F34F1413F01F0F4F
:1030AC0001D1013CA4B26FEAC4646FEA5444A4B2E7
:1030BC00C2F80044F0E6C3F34F0413F0010F01D043
:1030CC000134A4B2A402A4B2C2F80044D8E7C3F3FA
:1030DC004F0413F0010F01D00134A4B2A402A4B226
:1030EC00C2F80044D8E6012A7FF4D6AEB0F85020DE
:1030FC000C7802EBC402023200EB4202C2F800343C
:10310C00CAE601335B1000EB420202F5806204E078
:10311C00106821F8020B013B0432002BF8D17047E8
:10312C00D0F818321BB10020C3F8140270470220EB
:10313C00704710B5D0F81842D0F81C325BB194F837
:10314C000002FF2807D09B6894F80122214698477B
:10315C00FF2384F80032002010BD000043230380BD
:10316C0000487047500000204323038000487047FC
:10317C00940000204323038000487047D8000020AF
:10318C000A230380004870471C01002038B5044610
:10319C00D0F81852FDF712FCC5F80C02D4F818320E
:1031AC004BB1D4F81C32DB6805F50371D5F8040279
:1031BC009847002038BD0220FCE7000070B505469A
:1031CC000C46D0F818620B7813F0600225D0202A38
:1031DC0007D1CA883AB9D0F81C329B6800224878CB
:1031EC009847002070BD13F0800F0BD0D0F81C3224
:1031FC009B68314660789847E2883146284600F053
:10320C0071FCEEE74B7886F80032CB8886F80132F9
:10321C00CA88314600F07BFCE3E74B780A2BE0D1FF
:10322C000122024900F05EFCDBE700BF9C0300209A
:10323C0010B504468121FDF75AFB01212046FDF70C
:10324C0056FB82212046FDF752FBD4F8183253B1BD
:10325C00D4F81C325B689847D4F81802FDF7B8FB19
:10326C000023C4F81832002010BD38B50446037C86
:10327C0073BB4FF4007302228121FDF727FB4FF43F
:10328C000073022201212046FDF720FB08230322B4
:10329C0082212046FDF71AFB4FF40770FDF794FBD3
:1032AC000546C4F8180248B3D4F81C321B6898477A
:1032BC000023C5F81432C5F81832237CA3B140237F
:1032CC00D5F8042201212046FDF76AFB002038BD09
:1032DC00402302228121FDF7F9FA40230222012129
:1032EC002046FDF7F3FAD1E74FF40073D5F804222A
:1032FC0001212046FDF754FB0020E8E70120E6E71A
:10330C0019B1C0F81C120020704702207047D0F889
:10331C001832C3F80812C3F8102200207047D0F8F6
:10332C001832C3F8041200207047D0F818228AB162
:10333C0008B5D2F814320BB1012008BD0123C2F834
:10334C001432B2F81032D2F808228121FDF71AFBA0
:10335C000020F2E702207047D0F818229AB108B585
:10336C00037C3BB14023D2F804220121FDF718FB6A
:10337C00002008BD4FF40073D2F804220121FDF7A0
:10338C000FFB0020F5E70220704798B108B5034603
:10339C00D0F8140210B10020C3F8140209B1C3F81C
:1033AC0010121846012380F8FC310270FDF736FA32
:1033BC00002008BD0220704719B1C0F8141200207B
:1033CC0070470220704708B5FDF772FA002008BD5F
:1033DC0008B5D0F8143233B11B68984708B90020EF
:1033EC0008BD0220FCE70220FAE708B5D0F8143239
:1033FC005B689847002008BD38B5044600F5027597
:10340C00284600F00CF90123C4F8F431B4F80E325C
:10341C00C4F8F83194F8081201F01F03012B0ED0F8
:10342C003BB1022B10D001F080012046FDF76DFA64
:10343C0003E02946204600F06CFA002038BD2946EE
:10344C00204600F08AFAF8E72946204600F0A1FA57
:10345C00F3E710B5044621BB1346D0F8F421032A38
:10346C0001D0002010BDD0F80C11D0F810219142E1
:10347C000CD8D0F814321B6923B190F8FC21032A24
:10348C0000D19847204600F059FBEAE7891AC0F8AA
:10349C000C118A4228BF0A4692B2194600F046FB2C
:1034AC00DFE70A46D0F814329B69002BD9D090F88C
:1034BC00FC110329D5D111469847D2E710B5044623
:1034CC00002946D11346D0F8F421022A05D094F8ED
:1034DC000032012B39D0002010BDC169026A914223
:1034EC0019D88169B1FBF2F302FB13132BB98A4291
:1034FC0003D8D0F8F83199421AD3D4F81432DB68D7
:10350C002BB194F8FC21032A01D120469847204680
:10351C0000F01FFBDBE78A1AC26192B2194600F079
:10352C00EEFA00231A4619462046FDF739FACEE783
:10353C000022114600F0E3FA0021C4F8F8110B4602
:10354C000A462046FDF72CFAC1E7002384F8003226
:10355C00C1E70A46D0F814325B69002BBBD090F857
:10356C00FC110329B7D111469847B4E738B5044686
:10357C00402300221146FDF7A9F94025C4F810514B
:10358C002B46002280212046FDF7A0F9256201235D
:10359C0084F8FC31D4F818322BB1D4F814325B68AF
:1035AC00217920469847002038BD017400207047CF
:1035BC0090F8FC3180F8FD31042380F8FC310020B8
:1035CC00704790F8FD3180F8FC310020704708B549
:1035DC0090F8FC31032B01D0002008BDD0F8143238
:1035EC00DB69002BF8D09847F6E7002302E00133A3
:1035FC00DBB201300278002AF9D1184670474B88AB
:10360C00012B0BD110B50446C0F80432D0F814329B
:10361C009B689847204600F091FA10BD70470B78D4
:10362C0003704B7843708B78CA7803EB022343808A
:10363C000B794A7903EB022383808B79CA7903EBEC
:10364C000223C380704710B504468021FDF75DF955
:10365C0000212046FDF759F910BD30B583B0044662
:10366C000D464A88130A013B062B00F28180DFE8E5
:10367C0003F00413277F7F637000D0F810321B68AF
:10368C000DF10601007C9847BDF8062012B1EB88BD
:10369C00002B71D103B030BD037C43B9D0F8143288
:1036AC009B6A0DF10600984702234370ECE7D0F8B3
:1036BC001432DB6A0DF10600984702234370E3E7EE
:1036CC00D2B2052A34D8DFE802F0030B131B232BEC
:1036DC00D0F810325B680DF10601007C9847D3E7F7
:1036EC00D0F810329B680DF10601007C9847CBE7AF
:1036FC00D0F81032DB680DF10601007C9847C3E767
:10370C00D0F810321B690DF10601007C9847BBE71D
:10371C00D0F810325B690DF10601007C9847B3E7D5
:10372C00D0F810329B690DF10601007C9847ABE78D
:10373C002946FFF788FFADE7037C33B9D0F8143284
:10374C005B6B0DF1060098479EE72946FFF77BFF60
:10375C00A0E7037C43B9D0F814321B6B0DF10600C3
:10376C009847072343708FE72946FFF76CFF91E7D3
:10377C002946FFF768FF8DE79A4228BF1A46ADF835
:10378C0006200146204600F0ADF983E738B5044623
:10379C008B88E3B9CB88D3B98D7805F07F0590F889
:1037AC00FC31032B0CD080F8FE512946FDF7DCF8D8
:1037BC00204600F0C3F935B1022384F8FC3109E04E
:1037CC00FFF741FF06E0012384F8FC3102E02046BC
:1037DC00FFF739FF38BD000038B504460D4689782F
:1037EC00254B1970012909D890F8FC31022B09D00E
:1037FC00032B1CD02946FFF726FF02E02946FFF7D2
:10380C0022FF38BD81B14160032380F8FC31FFF702
:10381C00DFFD022803D0204600F090F9F1E729469D
:10382C002046FFF710FFECE700F088F9E9E789B1D3
:10383C00436899421DD0D9B2FFF7D7FD0E4B1978CA
:10384C0061602046FFF7C4FD02280DD0204600F031
:10385C0075F9D6E7022380F8FC314160FFF7C5FD0E
:10386C00204600F06BF9CCE729462046FFF7EBFE2B
:10387C00C7E700F063F9C4E79D03002008B5CB88C7
:10388C00012B08D190F8FC31022B07D0032B0DD063
:10389C00FFF7D9FE01E0FFF7D6FE08BD0146002375
:1038AC0041F8083F012200F01DF9F6E70122011D45
:1038BC0000F018F9F1E708B590F8FC31023B012B48
:1038CC000CD80123C360D0F804320BB10323C360BE
:1038DC00022200F10C0100F005F908BDFFF7B3FE60
:1038EC00FBE710B5044690F8FC31023B012B0DD8D8
:1038FC004B88012B09D10023C0F80432D0F81432C4
:10390C009B689847204600F019F910BDFFF79BFE05
:10391C00FBE708B54B78092B1CD8DFE803F012182D
:10392C001B151B09051B0F0CFFF797FE002008BD8C
:10393C00FFF72CFFFAE7FFF74FFFF7E7FFF79EFFC4
:10394C00F4E7FFF7B8FFF1E7FFF759FEEEE7FFF7F3
:10395C00C8FFEBE7FFF777FEE8E738B504460D46FE
:10396C0090F8FC31032B11D10B79012B0BD8D0F82B
:10397C0014329B689847EB880BB1002038BD204669
:10398C0000F0DCF8F9E7FFF75EFEF6E7FFF75BFE09
:10399C00F3E738B505460C468A880B7803F06003CC
:1039AC00202B05D1D0F814329B689847002038BDE5
:1039BC00D1B26378012B25D0002B47D0032BF5D146
:1039CC0090F8FC31022B05D0032B0AD02146FFF7CF
:1039DC003AFEEBE70029E9D08029E7D0FCF795FF08
:1039EC00E4E7638823B919B1802901D0FCF78DFF76
:1039FC00D5F814329B68214628469847284600F093
:103A0C009DF8D3E790F8FC31022B05D0032B0AD09C
:103A1C002146FFF718FEC9E70029C7D08029C5D079
:103A2C00FCF773FFC2E76388002BBFD111F07F0F47
:103A3C0003D1284600F082F8B8E7FCF774FFD5F8FC
:103A4C0014329B68214628469847F2E790F8FC31DF
:103A5C00022B05D0032B09D02146FFF7F4FDA5E777
:103A6C0011F07F0FA2D0FCF750FF9FE712F0800FF0
:103A7C0011D101F07F04103400EB041404342846F7
:103A8C00FCF75FFF70B10123236002222146284618
:103A9C0000F028F88AE701F07F04013400EB0414ED
:103AAC000434ECE700232360EFE7D0B170B50D468A
:103ABC0016460446FFF799FD0130400080B2308075
:103ACC00287003236B70022307E001345A1CD2B216
:103ADC00E9540233DBB20021A95421780029F4D136
:103AEC0070BD704710B513460222C0F8F4218361F3
:103AFC00C3610A460021FCF745FF002010BD08B544
:103B0C0013460A460021FCF73DFF002008BD10B506
:103B1C0013460322C0F8F421C0F80831C0F80C3168
:103B2C000A460021FCF73CFF002010BD08B51346E7
:103B3C000A460021FCF734FF002008BD08B5042319
:103B4C00C0F8F43100231A461946FCF71BFF00207D
:103B5C0008BD08B50523C0F8F43100231A461946F0
:103B6C00FCF71EFF002008BD70B500250C4E0D4C57
:103B7C00A41BA410A54209D100F01AF800250A4E86
:103B8C000A4CA41BA410A54205D170BD56F82530D3
:103B9C0098470135EEE756F8253098470135F2E79E
:103BAC00B43C0008B43C0008B43C0008B83C000825
:103BBC00F8B500BFF8BC08BC9E467047F8B500BF0E
:083BCC00F8BC08BC9E467047DE
:103BD40000000000000000000102030406070809B9
:103BE400000000000102030402030405060708099B
:103BF4000A0B0C0D0E0F101001020000443A2F7333
:103C040072632F73746D33322F70726F702D626C08
:103C14002D746573742F5372632F6D61696E2E63F7
:103C24000000000048656C6C6F310000443A2F734B
:103C340072632F73746D33322F70726F702D626CD8
:103C44002D746573742F5372632F757362645F638D
:103C54006F6E662E6300000053544D333220566954
:103C6400727475616C20436F6D506F727400000044
:103C740053544D6963726F656C656374726F6E69DA
:103C84006373000030303030303030303030314108
:103C94000000000043444320436F6E6669670000E0
:103CA40043444320496E7465726661636500000095
:043CB40031010008D2
:043CB8000D010008F2
:103CBC000D070008E9060008ED060008F1060008EB
:103CCC00120100020202004083044057000201026C
:103CDC000301000004030904E1090008ED090008D0
:103CEC001D0A0008F9090008390A00085D0A0008D5
:103CFC00810A000800A24A04010000001000000024
:103D0C0009024300020100C0320904000001020252
:103D1C000100052400100105240100010424020205
:103D2C0005240600010705820308001009040100A0
:103D3C00020A00000007050102400000070581028D
:103D4C004000000009024300020100C032090400D7
:103D5C0000010202010005240010010524010001EC
:103D6C000424020205240600010705820308001042
:103D7C0009040100020A000000070501020002000C
:103D8C00070581020002000009074300020104C07C
:103D9C003209040000010202010005240010010593
:103DAC0024010001042402020524060001070582F7
:103DBC00030800FF09040100020A000000070501C6
:103DCC000240000007058102400000000A060002C4
:103DDC000000004001000000773200083D3200086E
:103DEC00C9310008000000003F3100082D310008E7
:103DFC0099310008000000000000000000000000E5
:103E0C007531000869310008813100088D310008D6
:040000050800014DA1
:00000001FF
