:020000040800F2
:10000000B01B0020815A0008295900082B5900080C
:100010002D5900082F590008315900080000000030
:10002000000000000000000000000000335900083C
:1000300035590008000000003759000839590008F8
:10004000AF5A0008B35A0008B75A0008BB5A000854
:10005000BF5A0008C35A0008C75A0008CB5A000804
:10006000CF5A0008D35A0008D75A00084759000849
:10007000DB5A0008DF5A0008E35A0008E75A000874
:10008000EB5A0008EF5A0008F35A0008F75A000824
:100090004D590008FB5A0008FF5A0008035B00088E
:1000A000075B00080B5B00080F5B0008135B000890
:1000B000175B0008513900081B5B00081F5B000834
:1000C000235B0008275B00082B5B00082F5B000800
:1000D000335B0008375B00083B5B00083F5B0008B0
:1000E000435B0008475B00084B5B00082DE9F04FBD
:1000F0000FF2A41CA1B0DCE90089CDE900892A9D9A
:10010000DFF8109C049100248DF843500D944FF0BB
:10011000FF38824616461F460FE0B3462C461BF8B2
:10012000011B0498D0470028049000F0A2800D988D
:10013000401C641E0D90F2D176193078252808D124
:10014000002100220791089209910A920B910C92CA
:100150000DE06A464146304600F0F4FF050001D14B
:100160000D98A1E0D9D50125E6E741F0010116F887
:10017000010F2028F9D023280CD02B2804D02D28BB
:1001800005D0302809D076E041F00201EFE741F0D8
:100190000401ECE741F00801E9E741F01001E6E76E
:1001A0000F9209E00F98484505DA00EB800402EB56
:1001B0004402303A0F92761C3278A2F130000A28BD
:1001C000F0D330782E2818BFCDF8388022D116F819
:1001D000010F2A2807D138683860761C50F8042BA4
:1001E00038600E9216E02D280CBF761C00200022ED
:1001F0000E920AE040B90E9A4A4505DA02EB8204F3
:1002000003EB4403303B0E93761C3378A3F13002AA
:100210000A2AEFD3ADF8401021A0317800F09CFFFE
:1002200008B116F8010B8DF842009DF842006828CD
:1002300004D1307868280AD1622105E06C2804BF17
:1002400030786C2803D171218DF84210761C12A8E9
:1002500006903A4616F8013B02A9504600F064F8B1
:1002600038B912AA02A9504600F0CAF900287FF551
:1002700064AF404618E02A2892D13A683A6052F8B2
:10028000040B3A6000280F9003D540420F9041F0D4
:100290000401761C95E7000000000000000000004B
:1002A000686A6C747A4C000021B0BDE8F08F622857
:1002B00020D0682811D06A2803D06C2827D0712854
:1002C00025D10868C01D20F007000860D0E9002390
:1002D00008300860194610467047002A0A680A600C
:1002E000106803D0121D0A6000B217E0121D0A60E8
:1002F00080B217E0002A0A680A60106803D0121D55
:100300000A6040B20AE0121D0A60C0B20AE0002A88
:100310000A680A60106803D0121D0A60C11770478E
:10032000121D0A60002170477CB50D4611461C461F
:100330002E69B4F1250200F051811C3A00F086804C
:10034000121F022A40F282800E3A00F00B81521FE7
:100350005AD0093A7AD0921E16D0521E35D0521E6B
:10036000022A73D9121F30D0521F00F09A80521EF9
:100370004AD0521E00F0E480D21E00F00181921E8D
:1003800042D0D21E40D02FE195F83A406C2C09D0D3
:100390006869421C6A610A680A6052F8043B0A6094
:1003A00033542BE10A680A6052F8043B0A60009358
:1003B000002201924FF0FF332B636A46294600F07A
:1003C0009AF9002840F11A8105E195F83A000122D6
:1003D000FFF76DFFC5E900010023994204DA68695F
:1003E000411C69612D220DE0288F810704D56869C1
:1003F000411C69612B2205E0C00722D56869411CB8
:100400006961202232541CE095F83A000022FFF77F
:100410004EFFC5E9000195F83800010711D5D5E96F
:1004200000230020834208BF82420AD044F020000B
:10043000782806D1686930213154401C421C6A6119
:100440003454214668693044E86087E00868C01D7C
:1004500020F007000860D0E9002308300860C5E9F3
:100460000023D5E90001C80F04D06869411C696107
:100470002D220DE0288F810704D56869411C696130
:100480002B2205E0C00704D56869411C6961202260
:10049000325468693044E8602146284600F03AFA50
:1004A000ACE005F13A02507820B14FF0FF340FF67E
:1004B000343074E01078622808D0682824D06A2884
:1004C00012D06C282ED071280ED02BE00A680A605A
:1004D00052F8040B0A6020B94FF0FF340FF61C30BD
:1004E0005DE0E96A017089E00A680A6052F8040B6D
:1004F0000A6020B94FF0FF340FF600304FE0EA6A8F
:10050000D317C0E9002379E00A680A6052F8040BA7
:100510000A6020B94FF0FF340FF6E0203FE0E96AAF
:1005200001806BE00A680A6052F8040B0A6020B987
:100530004FF0FF340FF6C42031E0E96A01605DE05E
:100540000A680A6052F8040B0A60002120F00002D9
:1005500021F0FF33C5E90023EE607821284600F042
:100560002DF94BE06C2285F83A200B680B6053F8AC
:10057000042B0B6052BB4FF0FF340FF6B4200EE09B
:1005800095F83A206C2AF0D00868086050F8044BBF
:100590000860EC603CB94FF0FF340FF6782000F0B3
:1005A00003FE201A76BD2E6B002E04D5204600F0E7
:1005B0001BFE044608E032460021204600F03EFEC5
:1005C000002814BF041B3446AC6117E0294600F034
:1005D00092F8002812D54FF0FF3076BD6869411CB3
:1005E00069612522325409E06969481C6861252245
:1005F0007254210002D0431C6B613454002076BD3C
:100600002DE9F0410E4605469046726B7069316ADD
:10061000B46A121AB069521A716A121AF069521A3F
:10062000121A96F83800141B41070DD4002C0BDD6C
:100630002746B0682021A8470028B06057D0F06A4C
:10064000401C7F1EF062F4D1736942463146284651
:1006500000F0B0FC00284AD1376A002F0ADDB068EC
:100660003021A8470028B06041D0F06A401C7F1EAE
:10067000F062F4D1B369F2683146284600F09AFC82
:10068000A8BB776A002F09DDB0683021A847B060A9
:1006900068B3F06A401C7F1EF062F5D1F068B16962
:1006A000F36942183146284600F084FCF8B9B76A6D
:1006B000002F09DDB0683021A847B060B8B1F06AFA
:1006C000401C7F1EF062F5D196F8380041070BD52B
:1006D000002C09DDB0682021A847B06038B1F06A6D
:1006E000401C641EF062F5D10020BDE8F0814FF09F
:1006F000FF30BDE8F0812DE9F8470D46A3B02F6B20
:10070000002F0646904648BF6FF000470FF63C1496
:1007100000F0C0FDD4E90023696B4018CDE9012346
:10072000812828BF4FF0FF3042D20024002F33DD54
:10073000D8F8001001AA684600F006FD8146B9F11C
:10074000000F38D4D8F8000010B9B9F1010932D43B
:100750004F4521DB6869484481280AD30021696339
:1007600003AA29463046FFF74BFF040014D40020AB
:10077000686103ABD5F814A04A46694603EB0A004A
:1007800000F092FDCA44C5F814A058F8040B0028E4
:1007900018BFA7EB0907C9D14CB903AA29463046AF
:1007A000FFF72EFF044614B90020686168632046F5
:1007B00024B0BDE8F0874FF0FF34F8E72DE9FC479F
:1007C00007468C463E69BCF16F0F08BF082405D070
:1007D0004CF02000782814BF0A2410243C25D7E9C7
:1007E0000023BCF1640F18BFBCF1690F9046994615
:1007F00006D100218B4203DAD8F1000869EB4909E0
:100800004FF0000AD14508BFD0451FD1386BE8B979
:10081000082C4BD197F83800010747D530203B25ED
:1008200086F83B0042E000280ED597F8380000F02B
:100830001400102808D17B6B7969386A5B1A1B1A7F
:100840009A1A002AC8BF3A62BDE8F3878DF800C043
:10085000404649462246E31700F09CFD3032D0B2B4
:100860006D1E3A28019504DB9DF80000A0F15101AE
:100870008A187255404649462246E31700F08AFD21
:1008800089468046D14508BFD04503D0F868711924
:100890008842DDD3082C09D197F83800010705D527
:1008A000705D302802D06D1E30207055C5F13C02BD
:1008B000BA617119F960386B8242B4DA821A3A620D
:1008C0004FF6EF70398F01403987BDE8F3872DE986
:1008D000D04306460F4614464FF00008DFF8389420
:1008E00012E0E00707D542464B463046394600F055
:1008F00069FE06460F464046494642464B4600F0D2
:1009000061FE641080468946002CEAD130463946A3
:10091000BDE8D0832DE9F34F054641F020048DB0AA
:10092000D5E90089612C02AE09D0286B002848BFA8
:10093000062003D408BF672C01D101202863D5E924
:10094000002358004015401C0ED119030CD0032081
:10095000A8619DF8381061391A2902D20FF2F461AA
:1009600011E00FF2F4610EE059004915491C0FD156
:1009700018030DD10320A8619DF8381061391A2998
:1009800014D30FF2DC61E868032200F08DFCD3E1A0
:10099000194621F00043B3F5801F10460DD2002701
:1009A000BB4208BFBA42019703D111E00FF2AC611C
:1009B000E9E701AA00F0D8FE0AE0DFF8607307EB70
:1009C0001352DFF85C3301921940DFF858331943B2
:1009D000C5E90001612C0ED1E86830210170821C4C
:1009E000EA609DF8381061290CBF782158214170C8
:1009F0006869801C6861D5E900AB2BF000430020DA
:100A00002AF00002834204BF8242002300F05B818F
:100A1000612C40F0AA80286B002847BF212100915B
:100A2000401C0090009F7F1C404649460022002346
:100A300000F0D2FED94601998DF8082038BF89F020
:100A40000049091F002FD04601910DF1090040F324
:100A50004981B349DFF8D0B20C9106464046494679
:100A60000022002300F0D0FE80F03B814800400DC2
:100A700000F11C0211D0002A0FDD40F2FF7082420B
:100A800005DB09F0004040EA0B01002013E00C9860
:100A9000014041EA025140460DE029F000430020A8
:100AA00028F00002834208BF82420FBF40461C224A
:100AB000404600F0C1FE8046894600F05BFFFF1F04
:100AC000002F044609DD00F073FF02460B46404646
:100AD000494600F07FFF80468946F01D072104E06B
:100AE00004F00F0200F8012D2411002C01DD491E35
:100AF000F6D5491E5CBF002200F8012DF9D5ECE0C7
:100B00000020194602AA0A4400E05B1E12F80149BF
:100B1000491E8442F9D00F2804D10DF10900425C2E
:100B2000521C4254002904D50198001D02AE5B1CE2
:100B30000190591E12D49DF838007218A0F13A079E
:100B4000147804F130085FFA88F43A2CA8BFB8444E
:100B5000491E02F80189F3D58DF83800286B00286A
:100B600040F1B080591E2963ACE04046494600225E
:100B7000002300F031FE019938BF89F0004947F2A7
:100B800097504143694A91FBF2F20192D2F1070278
:100B900004DD40464946FFF79AFE0AE05242002033
:100BA0006349FFF794FE02460B464046494600F073
:100BB00083FF8046662C286BDFF878B106BF019F63
:100BC0000A3706273F18142FC8BF142730208DF886
:100BD000080089460DF1090000E03046002F34DDA1
:100BE00006464046494601F08BF801460A4606F1A2
:100BF000080304200A26B2FBF6F606EB860EA2EBEB
:100C00004E02303203F8012C0A22B6FBF2F202EB5C
:100C1000820EA6EB4E063036401E03F8026DE9D177
:100C2000083F002F03F10806D7DD084601F07CF8E5
:100C300002460B464046494600F0CCFE00225B4689
:100C400000F0C0FC80468946CBE70DF10901401A4F
:100C50000DF1090604E00199491E401E0191761C20
:100C600031783029F7D0662C02D10199491C03E074
:100C7000652C0CBF012100212B6BCB189842B8BF0B
:100C8000431E002B1ED4834204DAF05C3528A8BF33
:100C9000392000DA30201946721E02EB010800E00C
:100CA0005B1E18F80199491E8145F9D0392802D1F7
:100CB000705C401C7054002904D50198401C1646F5
:100CC0005B1C0190019800B200901BB29DF8381097
:100CD0003246284600F034F82EE0C61D002F3FF7BC
:100CE000BDAE30460DF10901401A00990346884215
:100CF000C8BF0B46002B0DF109063FF52FAF83420D
:100D0000BFF6FEAE0DF10900C15C07297FF7F8AE12
:100D10000F20F6E6CBCCCC0C0000244002FCFFFFF9
:100D2000FFFF0F800000E03F0000F07FA086010081
:100D30000000F03F84D797410FB0BDE8F08F00006E
:100D40002DE9F84783B006468A461746984600F0D4
:100D5000FDF9B8F1000F406A356B90F8009002DCA5
:100D60004FF00108BFA74AF02000BDF930406628C7
:100D700008BF641C15D0672840F0848014F1040F6C
:100D8000C0F28680AC4280F2838096F83800641C02
:100D9000010702D4A845B8BF454620B22D1A48BF66
:100DA00000250FFA84FAF068B169BAF1000F25DC6A
:100DB0004A1C30234354002D03DC96F83800010709
:100DC00003D5F06800F80290521C15EB0A0FB8BF6B
:100DD0006C4220B2441941424445B8BFA046B261BA
:100DE00071620FFA88F5F561F068B3692A463946F1
:100DF000184400F059FA641BB462C4E022B2904572
:100E0000084417DA4246394600F04EFAB0694044C9
:100E1000B061AAEB0801002D716203DC96F838106E
:100E20000A0705D5F16801F80090F069401CF061EF
:100E3000B562A8E0394600F037FAB069002D504499
:100E4000A8EB040803DC96F838100A0703D5F1680C
:100E500001F80090401CB0610FFA88F08542F368F9
:100E6000B069B8BFA8460FFA88F207EB0A01184428
:100E700000F01AFAB1690FFA88F00144B161281A3A
:100E8000706280E0BAF1610F14D14FF0700A16E081
:100E9000A84504DA96F838100A0758BF45466D1E73
:100EA00048BF0025BAF1670F14BF4FF0450A4FF055
:100EB000650A04E0BAF1410F08BF4FF0500AB1696A
:100EC000F368481CB061002D17F8012B5A5403DC5D
:100ED00096F838100A071BD5F168431CB36101F876
:100EE0000090002D14DDA8F101080FFA88F03946B2
:100EF0008542F768B8BFA8460FFA88F2F81800F0E4
:100F0000D3F9B0690FFA88F108446D1AB0617562BF
:100F1000F068B1690844002C80F800A003D42B22AB
:100F20004270811C03E02D2141706442811C00202D
:100F30006A460AE023460A2493FBF4F404EB840592
:100F4000A3EB450302F8013B401C24B2002CF1DC6A
:100F5000012806DC4AF02002652A04BF302201F88D
:100F6000012B48B9302001F8010B07E0401E1DF8A5
:100F70000030303301F8013B0028F7DCF268B0693B
:100F80001044091AF16196F8380000F01400102896
:100F90000DD17269B169706A8A18F1698218B06AF4
:100FA0008A188218706B8242BCBF821A326204B007
:100FB000BDE8F087F8B505460E4617461C460020EA
:100FC00074B117F8011BB068A847B06030B1F06A7F
:100FD000401CF0620020641EF3D1F2BD4FF0FF30E0
:100FE000F2BD00007072696E74665F733A20256E00
:100FF00020646973616C6C6F776564007072696EF0
:1010000074663A2062616420256E20617267756D96
:10101000656E74007072696E74665F733A20626107
:101020006420257320617267756D656E7400000021
:101030007072696E74665F733A2062616420256C19
:101040007320617267756D656E74000000000000AA
:10105000000000006E616E004E414E00696E660039
:10106000494E46003000F0B40246106895681318E7
:10107000506803EB5004C0071DD54D441BE013F826
:10108000017B05F8017B491EF9D1A0B1B60813F820
:10109000011B06F00306032E08BF13F8016B01EBDA
:1010A00006214942801C294405D011F8016B05F83E
:1010B000016B401EF9D1A3420ED013F8016B16F05C
:1010C000030104BF13F8011BC91C30090F28DAD132
:1010D00013F8010B0F30D6E7F0BC02F10C0070479B
:1010E0001B48704770B45368D418042B09DA41B117
:1010F000057804F8015B10F8016B16B15B1C491E02
:10110000F3E7536070BC704738B514461D4661B1B3
:10111000FFF7E8FF61686A6B204690476FF00102B5
:10112000811A02D0491E01D001E003E005E0002150
:10113000616032BD6FF0010032BD4FF0FF3032BD53
:10114000DA6B1047024BDFE7014BF9E701487047C4
:10115000D8010020A00100200278C9B28A421AB149
:101160001CBF10F8012FF9E718BF0020704730B4FA
:10117000002513E050F8042BD30744BFA9F1010365
:101180009A18091F042942F8045BFAD213468C0707
:1011900044BF15809B1CC90748BF1D7050F8041B35
:1011A0000029E7D130BC704780B500B906A00549D9
:1011B0000B681BB122220021984701E000F0C1FD1D
:1011C000222002BDA8170020636F6E7374726169DC
:1011D0006E742068616E646C65723A20626164208E
:1011E0006D6573736167650000F10103810704D0C9
:1011F00010F8011B820781B1FAD10268A2F1013116
:10120000914311F0803104BF50F8042FF6E709BA7A
:10121000B1FA81F100EBD100401CC01A7047B1F562
:10122000807F02D34FF0FF3070470170012070477C
:101230000078401E8041C043C00F7047C9B2830789
:1012400006D0521E22D310F8013B9942F7D11FE07D
:10125000083A13D302F1040241EA012141EA0141B3
:1012600050F8043B121F21BF4B40A3F1013C2CEA74
:10127000030C1CF0803FF3D0C9B2001F083210F8F5
:10128000013B521E28BF91EA030FF8D818BF012076
:10129000401E704780B5FFF723FF006C02BD026857
:1012A000531C03601170704762B38B0708D0521E45
:1012B00011F8013B00F8013B00F024808B07F6D1C8
:1012C000830740F0208000BF103A07D330B4B1E864
:1012D0003810103AA0E83810F9D230BC530724BFB8
:1012E000B1E80810A0E8081044BF51F8043B40F8EA
:1012F000043BD20724BF31F8022B20F8022B44BF55
:101300000B7803707047121F17D35B0009D151F897
:10131000043B20F8023B1B0C121F20F8023BF6D2C4
:101320000BE051F8043B00F8013B1B0A20F8023B9C
:101330001B0C121F00F8013BF3D238BF121D521EC6
:1013400024BF11F8013B00F8013BF8D870470000BA
:1013500013F0004C03D55B42524263F100039CEA58
:10136000210C00F0178010B5644603D34942404277
:1013700061F1000100F00EF8640004D349424042DC
:1013800061F10001244203D55B42524263F1000344
:1013900010BD0000BBBBE1B1B2F5803F80F07E80A4
:1013A000022A1ED98C46B1FBF2F102FB11C31B04C9
:1013B00043EA1043B3FBF2FC02FB1C3380B240EA69
:1013C0000343B3FBF2F002FB103240EA0C4000236F
:1013D0007047022A05D98446B0FBF2F002FB10C226
:1013E00070474AB105D100F0010249085FEA3000B8
:1013F000704700220023704700F0A6BC0B000200DB
:10140000002100207047904271EB030CF6D3B3F536
:10141000803F2FD2F0B5B3FA83F7B1FA81F4A7F188
:101420000F0E3D1B5340CEF1200602FA0EF2F3419F
:101430005340B5F10F0746D80F3C2C444140C4F14E
:101440002006A040F1414140B1FBF3F603FB161129
:10145000A2FB0645001BA94102D2761E8018594105
:1014600080EA010221FA0EF362FA0EF200215A40DC
:101470003046F0BD30B4B1FBF3FC03FB1C11A2FB02
:101480000C45001BA94103D2ACF1010C8018594155
:1014900030BC02460B46604600217047B2F1807FA7
:1014A00065D3F0B5B2FA82F7B1FA81F4C7F10F064D
:1014B0003D1B22FA06F307F1110EF24120355A4086
:1014C000B5F10F07B8D94140C4F12006A040F14161
:1014D0004140B1FBF3FC03FB1C11A2FB0C45001BBC
:1014E000A94103D2BCF1010C801859410F2F12D32E
:1014F0000F3FC90341EA5041B1FBF3F603FB16115C
:10150000A2FB0645D4EBC030A94102D2761E80185A
:10151000594146EACC3C07B34140C7F12006B840E8
:10152000F1414140B1FBF3F603FB1611A2FB064566
:10153000001BA94102D2761E8018594180EA01029F
:1015400021FA0EF3C7F1200462FA0EF20CFA07F04A
:101550005A402CFA04F13043F0BD80EA010221FA2E
:101560000EF3002162FA0EF260465A40F0BD8C463E
:10157000B1FBF2F102FB11C31B0243EA1063B3FBA0
:10158000F2FC02FB1C331B024CEA002043EA10630E
:10159000B3FBF2FC02FB1C331B024CEA002043EAC3
:1015A0001063B3FBF2FC02FB1C331B024CEA00206D
:1015B00043EA1063B3FBF2FC02FB1C324CEA00204E
:1015C00000237047B0B581EA030C0CF0004C40F2E8
:1015D000FF7515EA11541DBF15EA1357AC42AF420F
:1015E00039E0E41923EA455343F48013C90241F07A
:1015F000004141EA505EC7021100A7FB0202002829
:101600004FF00000EEFB01204FF00001E3FB07214B
:1016100018BF42F00102401800214941E3FB0E01CE
:10162000A4F580640F0302D252004041494154F1B5
:1016300001046CDD470872F1004250F1000051EBEB
:101640000451A1F580115CBF41EA0C01B0BD4CEA28
:1016500005510020B0BD05EA1357AC4214BFAF429C
:1016600041E050EA410E1CBF52EA430E02E06146DF
:101670000020B0BD24423C441BD15FEA070EF6D0E7
:10168000090302BF01460020AEF1140EB1FA81F742
:10169000AEEB070401FA07FE0C37C7F1200100FA90
:1016A00007F7C8404EEA000E23EA455343F480137F
:1016B000A2E733F00043B3FA83F704BFB2FA82FE25
:1016C00077440B3FE41BB7F1200E2FBF02FA0EF355
:1016D000BB40C7F1200E22FA0EFE38BF43EA0E03CC
:1016E000BA40641C82E750EA410E14BF52EA430E2E
:1016F0006FF000014FF4001717EB430F8ABF194634
:1017000017EB410FB5E74CEA05510020B0BDD4F10D
:101710000104B4F120070FDAC4F12007520828BFF2
:1017200042F0010210FA07F501FA07F7E1BF2A4378
:10173000E0403843E1400FE0352C98DCC7F120044D
:1017400052EA400220FA07F218BF42F0010231FAD1
:1017500007F0A1400A43002172F1004250F100005D
:1017600051EB0C01B0BD000010B5144600F002F8BA
:10177000226010BDC1F30A5343B14A0012F5001FA5
:1017800028D2A3F2FE32A1EB0251704750EA410C7D
:1017900020D001F0004C31EA0C01B1FA81F204BF13
:1017A000B0FA80F3D2180B3AB2F120032CBF00FA42
:1017B00003F1914041EA0C013EBFC2F1200C20FA36
:1017C0000CF319439040524240F2FD33D21A01EB20
:1017D00003517047002270474FF4001C1CEB410F6F
:1017E00094BF1CEB430F09E041EA030C50EA4C0C98
:1017F00052EA0C0C03D2994208BF9042704714BFC2
:101800008B428242704700004FF4001C1CEB410FDA
:1018100094BF1CEB430F09E041EA030C50EA4C0C67
:1018200052EA0C0C03D28B4208BF8242704714BFAD
:101830009942904270470000124254D440F2FF7C1B
:101840001CEA11530FD0634531D09B1863453CBF50
:1018500001EB0251704701F0004141EA0C510020B8
:10186000AFF30080704750EA410320D001F0004CF4
:1018700091EA0C011CD0B1FA81F30B3B9A420DD9CD
:10188000D21A994051EA0C01C3F1200C20FA0CFC49
:1018900061449840531C40F2FF7CD7E7914041EAF5
:1018A0000C01C2F1200C20FA0CF319439040704750
:1018B000B0FA80F31533202BE0D3202AEED3203A60
:1018C000203B9A4209D9D21A00FA03F141EA0C01ED
:1018D0000020531C40F2FF7CB8E700FA02F141EA15
:1018E0000C0100207047524240F2FF7C1CEA115369
:1018F0000DD06345DBD0B2EB030C3CBFA1EB025132
:1019000070470CF1010221EA035141F4801150EAC1
:10191000410CCCD001F0004C352A27DC30B481EAF0
:101920000C01B2F1200309DAC2F12003044601FAE6
:1019300003F5D0402843D1409C400CE0C3F1200285
:10194000450020FA03F418BF44F0010421FA03F023
:1019500091400C43002174F1004550F1000051EB1F
:101960000C01244230BC7FF47BAF704761460020FD
:1019700076E70000C1F30A5340F2FE329B1A14DDF1
:10198000D3F120034FEAE17208DDC90241EA505168
:1019900041F00040D84080185040704703F2E130D9
:1019A00010B1D24382F00040704700207047000021
:1019B000C11768B14840401AB0FA80F29040D21C7A
:1019C000C907C2F5846241EA025202EBD021400508
:1019D0007047000070B44FF0004591EA030F40F1EA
:1019E000B5816B40841A71EB030603D2001BB14131
:1019F000121973414FF4001C1CEB410F34BF7CEBF8
:101A0000430442E00C0DA4EB1356352E4FDC45EA9F
:101A1000C323DB0A45EAC121C912B6F120050DDD59
:101A200063FA05F6EB4086EA0305124218BF45F05B
:101A30000105C01851F100010CD213E062FA06F55D
:101A4000F2405540F3415A40B340F3405A408018A9
:101A5000594107D349085FEA30005FEA350528BFDE
:101A600045F0010501F58011420875F1004250F181
:101A7000000041EB04514E0016F5001F70BC38BF4A
:101A800070470020090D090570471CEB410F10D26B
:101A900052EA43060BD0BCEB410F05D80C0DAB430B
:101AA000661E342EB6DD02E0AB438018594170BC8F
:101AB000704770BC70470000F0B540F2FF7581EAD6
:101AC000030C0CF0004C15EA11541DBF15EA135716
:101AD000AC42AF42E5E0BC41C1F31301C3F31303D1
:101AE000801A994143F4801304D2641E4000494196
:101AF00080185941C90241EA5051B1FBF3F603FB8A
:101B00001611A2FB0675D7EBC020A94102D2761EA2
:101B100080185941C90241EA5051B1FBF3FE03FB61
:101B20001E11A2FB0E75D7EBC020A94103D2AEF166
:101B3000010E80185941890241EA9051760546EA22
:101B40008E2EB1FBF3F603FB1611A2FB0675D7EB45
:101B50008020A94102D2761E80185941C90241EA6B
:101B600050514EEA060EB1FBF3F603FB1611A2FB31
:101B70000675D7EBC020A94102D2761E80185941C4
:101B8000C90241EA5051B1FBF3F703FB1711A2FB65
:101B90000735D3EBC020A94167F100070CBF004215
:101BA00047F0010766F3D5274FEA1E31B80814F550
:101BB000806412DDBD0775F1004250EB0E5051EB11
:101BC000045111F5801F5CBF41EA0C01F0BD4CF0DF
:101BD0007F6141F0E0410020F0BDBD076D0840EAA3
:101BE0000E5041F48011D4F10104B4F120060ADA58
:101BF000C4F120060200E04001FA06F3E140184378
:101C0000B24015430EE0342C13DCC6F1200445EA43
:101C100040056D0820FA06F2154321FA06F0A140AE
:101C20000D43002175F1004250F1000051EB0C0111
:101C3000F0BD00205FEA0C01F0BDCFB992185B4106
:101C4000B3FA83F704BFB2FA82F6BF190B3FB7F1BC
:101C500020062FBF02FA06F3BB40C7F1200622FA86
:101C600006F638BF3343BA401CB1E419641E33E7AB
:101C70007F4231F00041B1FA81F404BFB0FA80F63E
:101C8000A4190B3CB4F120062FBF00FA06F1A140C5
:101C9000C4F1200620FA06F638BF3143A0403C1BB1
:101CA0001AE7AC421ABF05EA1357AF4212E050EAF6
:101CB00041061CBF52EA4306BFE750EA41073046DF
:101CC00061461CBF41EA0551F0BD52EA430C08BF12
:101CD000C143F0BD00204FF4001616EB410F98BF32
:101CE00016EB430F08BF16EB410F24BFC14305E0BD
:101CF00016EB430F0CBF61464CEA0551F0BD0000E6
:101D0000400D491840EA81200CD2490DA1F58061AF
:101D1000491C40F0004005DBD1F11F0154BFC84011
:101D2000C017704700207047014648B1B0FA80F1F3
:101D30008840C91CC1F58461090501EBD02140052B
:101D40007047012000F0B8B870470000841A71EBAA
:101D5000030604D26E40001BB141121973414FF4C7
:101D6000001C1CEB410F34BF7CEB430683E00C0DE1
:101D7000A4EB1356362E00F37C80012E45EAC323D4
:101D800041DC43EA525312BFD20292025B0824059F
:101D900045EAC12141EA5051D2EBC020994125D4F6
:101DA00007D1B0FA80F610FA06F162D00020203692
:101DB00008E0B1FA81F6B140C6F1200220FA02F241
:101DC0001143B0404FEAF474B4EB465434F00106CA
:101DD0004FEA74040AD8D6F50016760D04F00044D4
:101DE000F04061FA06F25040F1404840C00A40EA33
:101DF000415021F0004128BF5FEA500550F100003A
:101E000044EBD12135E0DB0A45EAC121C90AB6F12C
:101E100020050EDD42EA0242120CC5F1200603FA4B
:101E200006F6EB4042EA06056D42984161F1000179
:101E30000DE062FA06F5F240554063FA06FC82EACC
:101E40000C02F3405A406D42904161EB030111F4E2
:101E5000801F05D1641E620502D06D0040414941DA
:101E600021F48011430875F1004350F1000041EB6B
:101E7000045170BC70471CEB410F15D223F0004396
:101E800052EA43060BD04FEA4C0CBCEB410F04D88E
:101E90000C0D661E342EB7DDEBE7801A994150EA2F
:101EA000410608BF0021E4E708BF1CEB430F28BF31
:101EB0006FF00001DDE7000080B5AFF30080024A5B
:101EC00011001820ABBEFBE72600020078B585B0F4
:101ED000044600260CB9012046E004F585656878C3
:101EE00018B92E70204600F04DFB03206870206862
:101EF00000F085FC83B000F039F80EBC206800F0DB
:101F000077FC2068002100F07FFC002204EB4610E3
:101F10002830067086810121761C0F2E4170C27018
:101F2000026142618261F1D30020002304EB401181
:101F300001F50A72537010708886D370401C0F2808
:101F4000136153619361F1D383B000F00FF80EBCBD
:101F5000206800F05BFC002084F8240001216970F7
:101F6000206800F01FFF002006B070BD211D6846EC
:101F70002022FFF7A9B910B500F09FF801D1022087
:101F800010BD00F08FF8206800F00AFF206800F014
:101F900031FC8EE038B5044600F081F8000444BFFF
:101FA000204600F05DF900F07AF840050CD500F00D
:101FB00072F84FF6FF3000F06AF8204600F015FB8B
:101FC0000021204600F07EF800F069F8400405D5B5
:101FD00000F061F84BF6FF7000F059F800F05FF880
:101FE000800405D500F057F84DF6FF7000F04FF86B
:101FF00000F055F8C00417D52168B1F840204FF61D
:10200000FB700240A1F840204FF6F770B1F8402075
:102010000240A1F84020204600F002FB00F03BF80F
:102020004EF6FF7000F033F800F039F8000516D5D1
:10203000206800F14002118841F0080111804FF240
:10204000FF7193880B409380158845F00405158037
:1020500000F0AAFEC0045CBF204600F0D3FA00F0F6
:102060001EF8800508D500F016F84FF6FF5000F076
:102070000EF8204600F0B5FA00F011F8C00505D5BD
:1020800000F009F84FF6FF6000F001F831BD0240A2
:10209000A1F8442070472168B1F8442070472068B7
:1020A00000F082BE012084F828040121204600F0BF
:1020B00088BB002084F8280410BD044694F8280446
:1020C0000128704710B5FFF7F8FF01D1022010BDBD
:1020D00000F006F884F82410206800F05BFEE8E7C2
:1020E000012084F82804704738B500F035F80D0653
:1020F0004CBF283000F50A7001F07F050570C90952
:1021000041700261C37094F82814012901D10220A2
:1021100032BD00F01BF800F089FB9DE010B500F027
:102120001BF80A064CBF283000F50A7001F07F0248
:102130000270C909417094F82814012901D10220C4
:1021400010BD00F003F800F08EFCB2E7012284F825
:102150002824014620687047044601F07F0004EB04
:102160004010704710B501F07F0400EB441404F5F3
:102170000A7401F07F016261A3610022E261627072
:1021800015E001F00F0100EB4110D0F8440280B2DD
:10219000704710B501F07F0400EB441428346261ED
:1021A000A3610022012301F07F01E26163702170CD
:1021B0002146006800F0D4FC002010BD38B505466B
:1021C0000C462106204606D500F07F0205EB42139F
:1021D00003F1280103E005EB441101F50A71012226
:1021E0008A7004F07F040C70C009487095F82804C8
:1021F000012801D1022032BD85F82824286800F08A
:102200006DFD24B9286805F22C4100F0D0FD0020B6
:1022100085F8280432BD38B5044608060A4606D5B6
:1022200002F07F0304EB431505F1280003E004EB03
:10223000411000F50A700023837001F07F010170E6
:10224000D209427094F82814012901D1022032BD2C
:10225000FFF77CFF00F067FD002084F8280432BD02
:102260002DE9F84F0022ADF80020ADF8002000F570
:102270000A7500F1240940F68F7A04462DE00188A2
:1022800048F60F72114001802068B0F8501099F89C
:10229000042001EBC20100EB410000F204400068A1
:1022A000D9F81820C0F30900C9F820000244C9F881
:1022B00018200021204600F08DF999F8002062B125
:1022C000D9F81C0048B999F80010206841F0800145
:1022D000A0F84C10002189F80010206800F144019A
:1022E0000A88ADF80020120440F12C81BDF80020CE
:1022F00012F00F0870D1BDF80020D306BFD50288B8
:10230000ADF80020BDF800301A0519D589892A7862
:1023100001EBC20100EB410303F20C431B68AA88E6
:10232000C3F30903EB6104F22C4100F05DFD20686A
:1023300001880AEA01010180204600F03DF9CCE75E
:10234000BDF800100A04C8D501880AEA010101801D
:102350002068B0F85020297802EBC10200EB42035C
:1023600003F20C431B68C3F30903002BEB6107D096
:10237000AA88696900F038FD6869E9690144696102
:102380000021204600F01EF92068B0F8501000EB44
:10239000410029693F2900F20C4009D34A0911F094
:1023A0001F0F08BF521E920242F4004292B205E093
:1023B0004A08C90748BF521C9206120C02604BF62D
:1023C0008F7220680188114081F4405141F400412E
:1023D00041F08001018080E730F82810ADF800104E
:1023E00004EB4816BDF800100A0451D530F8281047
:1023F0000AEA010120F8281006F50A77206897F804
:1024000000C0B97A51B9B0F8501000F0AFF82BD035
:10241000BA8879695B4600F0E7FC25E030F82C10BB
:102420004904B0F850100DD511EBCC0200EB42037B
:1024300003F204431968C1F3090BBBF1000F09D083
:10244000FA8803E000F092F804D03A895B46796993
:1024500000F0CAFC2168387800F077F842F40042B6
:1024600042F0C00221F82020F9695944F9617A69E3
:102470005A447A61BB6913B139698B4504D2397802
:10248000204600F09FF803E039782046FFF76AFE07
:10249000BDF80000010651D5206830F8281048F634
:1024A0000F72114020F8281016F8283F2768B07ADC
:1024B000D90050B9B7F8500000F04DF827D0B288D5
:1024C0007169206800F07EFC21E037F823004306A4
:1024D000B7F8500004D500F03EF80ED0F28808E0BE
:1024E000091807EB410202F20C4200F039F804D05F
:1024F00032897169206800F065FC2168307800F04D
:1025000024F842F4404242F0800221F82020206862
:102510003178B0F8502002EBC10200EB420000F22B
:1025200004400068C0F30900F061726902447261FE
:102530002046B369002B02D100F04CF8CDE6FFF73E
:1025400028FECAE60020BDE8F28F31F8202048F6C8
:102550008F731A407047091807EB410202F20442D8
:102560001368C3F30903002BF361704711EBCC022E
:1025700000EB420303F20C431968C1F3090BBBF1F2
:10258000000F704700688949884200D0704780B5C5
:102590008748026842F4000202600022006800F4EA
:1025A0000000009000210098142000F045FCBDE8D8
:1025B0000240142000F05DBC00F22C41D0F85C0415
:1025C00000F0C1BC00EB4112D0F85C04D2F83C2210
:1025D00000F0E4BC00EB4112D0F85C04D26B00F0D8
:1025E00010BDD0F85C0400F089BD10B5044601218F
:1025F000D4F85C0400F071FDD4F85C04BDE8104030
:1026000000F04BBD10B50446D4F85C0400F068FD42
:10261000A06920B16748016841F00601016010BD62
:10262000D0F85C0400F064BD10B5044662485F4910
:10263000C0F85C44C4F82002082201604260022312
:10264000032100228360C1608261C2610262FFF7E0
:102650003DFC20B14FF497715AA000F017FFD4F859
:10266000200218230022002100F028FFD4F82002C5
:1026700058230022802100F021FFD4F82002C0233B
:102680000022812100F01AFFD4F820024FF4887351
:102690000022012100F012FFD4F820024FF48073D1
:1026A0000022822100F00AFF002010BD10B5D0F8F2
:1026B0002002FFF760FC002418B102280CBF01249F
:1026C0000224204610BD38B51C461346D0F820021F
:1026D0002246FFF709FD002518B102280CBF01258D
:1026E0000225284632BD10B5D0F82002FFF716FDAE
:1026F000002418B102280CBF01240224204610BD7A
:1027000010B5D0F82002FFF759FD002418B10228B7
:102710000CBF01240224204610BD10B5D0F82002C1
:10272000FFF779FD002418B102280CBF0124022410
:10273000204610BDD0F8200201F07F02090600EB10
:10274000421002D590F82A00704790F82A0270478C
:1027500010B5D0F82002FFF7B5FC002418B102280C
:102760000CBF01240224204610BD10B5D0F8200271
:10277000FFF70FFD002418B102280CBF012402242A
:10278000204610BD10B5D0F82002FFF7EBFC002466
:1027900018B102280CBF01240224204610BDD0F835
:1027A0002002FFF7EEBC054870470000005C0040C7
:1027B0001C10024010ED00E0F009002094120020EF
:1027C00070477047443A5C7372635C73746D333264
:1027D0005C70726F702D626C2D746573745C5372D3
:1027E000635C757362645F636F6E662E63000000E6
:1027F0000EB418E0B0F8401041F43F41D9E2B0F80F
:10280000402044F2FF21D8E2002070470EB401219D
:1028100020F8401F0022028082800021018202886D
:1028200042F43F420280002003B070472DE9F0439C
:102830000A4648F68F11D378032B16D8DFE803F049
:10284000020F070A00F00AF941F400710BE000F0F2
:1028500005F908E000F002F941F4C06103E000F07E
:10286000FDF841F4806120F8231011780D4630F80E
:10287000256048F68F74264048F28003314319439F
:1028800020F825104BF68F75917A92F80080002978
:102890004CF2800648F6BF7748F2C00C57D19188B9
:1028A00049084FEA410951780029B0F8501001EB6E
:1028B000C80117D000EB410101F58061C1F800901B
:1028C000117830F821506E0606D530F821502C4092
:1028D0004CEA040420F8214000F0B3F8174087F0D8
:1028E00020077BE000EB410707F58167C7F8009000
:1028F000B0F85010177801EBC70100EB410E1169D9
:102900003F290EF20C4E09D34F0911F01F0F08BFDB
:102910007F1EBF0247F40047BFB205E04F08C9075A
:1029200048BF7F1CBF063F0CCEF80070117830F80E
:1029300021707F0405D530F821703C40344320F8E5
:10294000214000F07EF8154085F440556DE030F8E8
:102950002810214041F4014141F0800120F8281065
:1029600000F073F801F58069D18849084900C9F879
:10297000001000F06AF801F5816E118949084900DC
:10298000CEF80010517892F800E0002930F82E10AF
:1029900026D1490405D530F82E1021400E4320F8E9
:1029A0002E60117830F82160760606D530F8216067
:1029B00026404CEA060620F82160117830F82160A4
:1029C00034404CEA040400F036F8254085F44055C4
:1029D0001D4320F8215000F034F817403B4325E018
:1029E000490405D530F82E102140314320F82E102F
:1029F000117830F821E05FEA4E6807D530F821E021
:102A000004EA0E0E4CEA0E0C20F821C0117830F8C2
:102A100021C004EA0C04344300F00DF827401F43A2
:102A200020F8217000F00DF815402B4320F82130DC
:102A30000020BDE8F08320F82140117830F82140D3
:102A40007047117830F821207047B0F8501092F894
:102A5000008001EBC80100EB41017047137830F8AA
:102A60002340214070472DE9F041024691F800E0F3
:102A700048788B7A4BF68F764CF2800848F28004C7
:102A800048F6BF7548F2C00C48F68F77BBB90028EE
:102A900032F82E0009D0430628D532F82E00074020
:102AA0004CEA070022F82E0020E0430439D532F822
:102AB0002E00074048EA070022F82E0031E00028E7
:102AC00032F82E001AD1430406D532F82E003840D1
:102AD00048EA000022F82E0000F031F84CEA070323
:102AE00000F027F81E40264322F82060087832F8CC
:102AF00020100D402C4322F8204019E0430406D555
:102B000032F82E00384048EA000022F82E0000F08B
:102B100016F848EA070300F00CF81D40254322F898
:102B20002050087832F820100E40264322F820600A
:102B3000B5E022F82030087832F820307047087865
:102B400032F820305B0606D532F820303B404CEAA4
:102B5000030322F82030087832F820301F407047F5
:102B60002DE9F0410D4680466A78A8692969012A55
:102B7000074648F2800640D181423ABF0F46C01B4B
:102B80000020A861A87A28B9AA8800F091F800F07E
:102B90009AF829E02878C10038F820004206B8F8F1
:102BA000500003D500F088F82A8902E000F084F88C
:102BB000EA8800F07DF8687848F68F7140B9287887
:102BC00038F82020114041F4004141F0C00109E0F3
:102BD000012809D1287838F82020114041F44041DB
:102BE00041F0800128F82010297838F8212048F693
:102BF000BF70024082F030024EE081423ABF0F4681
:102C0000C01B0020A97AA8617B0800294FEA571C45
:102C100007F001001AD0BAB900F044F808EB4101FE
:102C20003F2F01F2044109D3624617F01F0F08BF7E
:102C3000521E920242F4004292B204E01A4600B1DF
:102C4000521C9206120C0A606978C9B900F02AF881
:102C500008EB41043F2F04F20C440BD317F01F0F75
:102C600008BFACF1010C4FEA8C2040F4004080B268
:102C7000206009E000B15B1C9B061B0C236003E095
:102C8000012901D100F01FF84BF68F70297838F830
:102C90002120024082F44052164328F8216000208F
:102CA000BDE8F081B8F850102A7801EBC2017047F6
:102CB0006969BBB2404685E0091808EB410404F29B
:102CC000044427607047B8F85000297800EBC10031
:102CD00008EB400404F204442760704710B50A78FA
:102CE00048F2800352B902884BF6BF710A4082F461
:102CF000805282F010021343038012E0497830F8CA
:102D00002240002905D048F6BF710C4084F0100421
:102D100004E04BF68F710C4084F48054234320F878
:102D20002230002010BD70B54A780C78002A30F8A7
:102D3000242048F2800348F68F7513D0560608D534
:102D400030F82420154045F4004545F0C00520F832
:102D500024500A7830F8224048F6BF710C4084F0C5
:102D6000300412E0560408D530F82420154045F40C
:102D7000404545F0800520F824500A7830F822407C
:102D80004BF68F710C4084F44054234320F82230DA
:102D9000002070BD11B98021A0F84C1000207047B0
:102DA0000020704700207047B0F8440070470020B2
:102DB0007047A0F84010002070470A40A0F840205B
:102DC0000020704710B500EB42005B1C00F58060EE
:102DD0005B1007E00A784C7842EA0422891C20F84C
:102DE000042B5B1EF6D110BD00EB42005B1C00F50E
:102DF00080605B1004E050F8042B21F8022B5B1E6E
:102E0000F9D170470901020006D52F4A00F00F00E2
:102E1000104400F8041C70472C4B195470472C4B7D
:102E200019684FF6FF020002114000F4E060084309
:102E3000284908431860704738B5254B1C68C4F30F
:102E40000223C3F10704052C28BF04241D1D072DF0
:102E500034BF0023DB1E012505FA04F4641E214063
:102E6000994005FA03F35B1E1A401143BDE8344054
:102E7000C8E7012200F01F01174BFFE78A40400915
:102E800043F82020704710B5401EB0F1807F01D379
:102E9000012010BD114C60600F214FF0FF30FFF793
:102EA000B1FF0021A16007202060002010BD042890
:102EB0000A4904D1086840F00400086070470A68B5
:102EC00022F004020A60704718ED00E000E400E020
:102ED0000CED00E00000FA0500E100E010E000E089
:102EE00000F000B8704738B508B9022032BD00F5CF
:102EF000FE74A3690BB10025A56101B161610121D7
:102F000021700270FFF790FB002032BD02460020C6
:102F100011B1C2F8141270470220704780B5FFF754
:102F2000C5FB002002BD10B5D0F8142202241AB14E
:102F30001268904700B90024204610BD80B5D0F833
:102F400014225368E6E038B5044604F502752846B5
:102F500000F061FC04F5FA7001210160428B017DF3
:102F6000426011F01F0003D002280BD005D30EE001
:102F70002946204600F0BCFA0EE02946204600F023
:102F800052FB09E02946204600F068FB04E001F00E
:102F900080012046FFF7B4FB002032BD38B504465F
:102FA00010460A0004F5FA7320D11968032926D1C6
:102FB00004F586714A680D68AA420AD2AD1A0D60FE
:102FC000954238BF2A46014692B2204600F07FFC67
:102FD00015E0196A086928B1187A032802D109692D
:102FE00020468847204600F07AFC08E01A6A90697B
:102FF00028B1187A032802D1926920469047002010
:1030000032BD38B5044610460A0004F5FA7539D1C8
:103010002968022930D1E269216A914207D2521A05
:10302000E261014692B2204600F03FFC11E0A26945
:10303000B2FBF1F001FB102090B98A4210D368680E
:1030400082420DD200220021204600F02EFC0020FA
:1030500068600023002200212046FFF793FB0BE06D
:10306000296AC86828B1287A032802D1C96820468D
:103070008847204600F03AFC287B01280BD100212C
:10308000297308E02A6A506928B1287A032802D1F6
:10309000526920469047002032BD10B504464023B7
:1030A00000220021FFF70FFB4022C4F8102140232B
:1030B000002280212046FFF706FB402004F5FE7227
:1030C00020620121D069117028B19269616853684A
:1030D000C9B220469847002010BD017400207047F7
:1030E00000F5FE70042201784170027000207047E4
:1030F00000F5FE70417801700020704780B500F542
:10310000FE710A78032A03D18969C96901B1884728
:10311000002002BD9847002002BD000010B53F28E6
:10312000A0B0D04A06D065281CD06F2805D07028E2
:1031300009D023E00120106420E00968CA4801603A
:10314000012353641AE000F064FCC849D1F8003050
:10315000CFA10246684600F095FC0146684600F0A3
:103160000EFD0BE0C24C204600F02FFD0021204652
:1031700000F055FD0321B9A000F001FD20B010BD05
:103180002DE9F04790B000F087FF00F093F8B94CBC
:10319000B94A6068B94D0FF20C3A40F02000606007
:1031A0000026606800F0200000900FF2B42900981B
:1031B000616841F008016160606800F008000090FB
:1031C0000098616841F0040161604FF4006160683B
:1031D00000F00400009000980191029200210391F8
:1031E000284601A900F06AFF206840F00100206035
:1031F000002221689B4C01F0010100910021009800
:103200000B20FFF719FE0B20FFF733FE00220021F1
:103210000C20FFF711FE0C20FFF72BFE00F08EF8BC
:1032200000F0C9F801F026F80822214604F1100048
:1032300001F0C0F8286820F4004028600821904878
:10324000696186A5026822F00202026000F0B1FB0B
:1032500001F052FA8046206C08B9464520D200F0B1
:1032600050FB0346804802685146684600F00AFC5D
:103270000DEB0006002734F817204946304600F0D1
:1032800001FC36187F1C082FF5DB0D2106F8011B09
:103290006846311A00F073FC002008F164062064CF
:1032A000606C0028D4D00321284600F068FC002080
:1032B0006064CDE700B54FF48031002293B00A91ED
:1032C0000B921191012009900D9002224FF4E01110
:1032D0001092129109A801F015FA00B1FEE702213F
:1032E00005910F204FF4806104900022079108910E
:1032F0000692022104A801F091FB00B1FEE7122022
:1033000000904FF48041002202910392684601F040
:1033100053FC00B1FEE701F02EFC4FF47A71B0FBD4
:10332000F1F0FFF7B0FD0420FFF7C1FD00220021FE
:103330004FF0FF30FFF780FD13B000BD1FB5494CC3
:10334000504820614FF480710120E061A1614FF489
:1033500040200021E062042261626161226204F186
:10336000100000F0A3FF00B1FEE70820012100904B
:1033700001910022029200F019F800B1FEE7092144
:103380000091022200F011F800B1FEE71021009137
:10339000032200F00AF800B1FEE711210091042297
:1033A00000F003F800B1FEE71FBD0192694604F189
:1033B000100001F086B8344810B52D4C206040F65E
:1033C000C41048210022E0606160A2602261626155
:1033D000A26194B0204600F0EBFB00B1FEE74FF491
:1033E0008050109010A9204600F0DCFC00B1FEE7F0
:1033F000204600F007FC00B1FEE70021009101919A
:103400002046694601F079FC00B1FEE760204FF4E8
:10341000487109900A9100220B920C920D920E9223
:103420000F9209A9204600F045FC00B1FEE70021FB
:103430000391059102904FF40051002207910492EC
:103440000692089202A9204601F02AFC00B1FEE78C
:10345000204601F03FFD14B010BD00004F4B0D00A1
:1034600025642000B4160020342C014024040040C0
:10347000401700201410024000001110000C014001
:103480000030014000240140002C0140FEE7000014
:103490006372313A2532782C20636E743A25640DBC
:1034A0000000000070626C206F75743A256420661D
:1034B0003A2564206164633A2000000010B50C06D0
:1034C00005D501F07F0100EB4110283003E000EB4F
:1034D000411101F50A701AB900218172838004E05C
:1034E000C38001211B0C81720381002010BD0000EC
:1034F000F8B50D4604466878092804F5FE7646D8E6
:10350000DFE800F0647B45744509054553232046F8
:1035100000F008F980E0A888002804BFE8880028A7
:1035200035D13078AF78032807F07F072FD0B770F8
:1035300039462046FFF70CF900F08DF8002F07BF41
:10354000012131700220307066E0344F6888387095
:10355000397802291BDA3378022B08461AD0032B5C
:1035600015D131B90220307061602046FFF7E6FCCA
:1035700050E0616888424DD0C9B22046FFF7DEFCBA
:10358000397861602046FFF7CEFC022842D100F076
:1035900047F841E000293DD06060032030702046AC
:1035A000FFF7C1FC0228F2D034E0E8880128EED110
:1035B0003178022904D00329E9D10122211D11E02B
:1035C0000020A060012204F108010BE03078801E89
:1035D0000128DCD8B068012100B10321E16002229A
:1035E00004F10C01204600F058F915E06888012824
:1035F00012D10121B160294608E03078801E0128EF
:10360000C5D86A88012A07D10020B0602046B26977
:103610009368984700F01FF80020F2BDAD17002016
:10362000294620460BE138B5044604F5FE720D46E6
:10363000107803280BD12879022808DA9269936858
:1036400020469847E88820B900F005F801E0FFF728
:10365000E8FF002032BD204600F041B970B50D46AC
:1036600004462878297900F06000202804F5FE76C9
:1036700002D100F051F84DE06A78002A01F07F0095
:1036800026D0012A0FD0032A44D13078022810D046
:1036900003283DD16888B0B900291EBF8029204683
:1036A000FFF72EF80FE03278022A02D0032A04D066
:1036B0002EE000292ED0802911E06A8852BB20B16B
:1036C0002046FFF72AF800F027F8FFF7C4FF21E0B3
:1036D0003278022A02D0032A06D019E0002819D035
:1036E0002046FFF70DF815E004EB00100B064CBF69
:1036F00000F1140500F582752046FFF71BF800B1B4
:103700000120286002222946204600F0C6F801E088
:10371000FFF786FF002070BDB269936829462046F6
:103720001847000038B50D4604466888030A012B87
:1037300004F5047208D0022B21D0032B2CD0062BC9
:1037400056D0072B5BD063E01268207C1368694673
:103750009847BDF8001000291CBFE98800290DD04A
:10376000BDF80010EA88914288BF1146ADF80010FC
:103770000146BDF80020204600F08FF831BD207CC6
:1037800051680028684604D1896A8847022242703D
:10379000DFE7C96A8847F9E7C0B2052838D8DFE80B
:1037A00000F003090F151B211268207C536869463D
:1037B0009847CEE71268207C936869469847C8E727
:1037C0001268207CD36869469847C2E71268207C5B
:1037D000136969469847BCE71268207C53696946BB
:1037E0009847B6E71268207C936969469847B0E726
:1037F000207C68B951684A6B68469047A9E7207CED
:1038000030B951680A6B6846904707214170A0E7BC
:10381000FFF707FF31BD0A7802704B7843708A7852
:10382000CB7802EB032242804B790A7902EB032228
:1038300082808A79C97902EB0122C280704710B573
:1038400004468021FEF75CFF2046BDE810400021C1
:10385000FEF756BF00280B4600D1704770B50146F1
:10386000002400E0641C11F8015B002DFAD124064D
:10387000E40DA41C14801188197003225A700222CE
:1038800007E010F8011BD4B2521C1955D6B2521CD5
:103890009D5501780029F4D170BD80B513460222F0
:1038A000C0F8F4218361C36101E080B513460A4684
:1038B0000021FEF75AFF002002BD80B51346032207
:1038C000C0F8F42100F584721360536001E080B504
:1038D00013460A460021FEF755FF002002BD80B5C1
:1038E0000421C0F8F41100230022E1E780B505218E
:1038F000C0F8F41100230022ECE70000584801F062
:1039000027BBF0B5564E00200021002506F50177B3
:103910000DE002F108035468BB4228BFA3F5007311
:1039200047E800321AB9001941EBE4716D1C57E801
:10393000002FD6F808329A42EBD1BFF32F8F2DB16A
:103940002A46BDE8F0400023FDF702BD0020F0BD8F
:103950003EB5444C206820F4417040F44070206033
:103960004148457890F9001080782D0245EA0145DC
:10397000054300F0C1FE0090019502AA694638484F
:1039800001F0FEFA39480168490849000160032244
:103990004260016841F001010160206820F441703B
:1039A00040F4007020603248016821F00901016094
:1039B00037BD10B52C4C2B492163201D01F036FB7F
:1039C0002C4A2D4913680B4040F6010003432B4855
:1039D0001360026822F0706242F020620260416867
:1039E0004160026822F4700242F480020260416881
:1039F0004160026822F4704242F480420260052273
:103A00004168416004F13800BDE81040012101F037
:103A100069BB70B51549486808B1002070BD1148F0
:103A2000174C02684368256825F4805525600325F6
:103A30000E68760876000E604D600E6846F001064E
:103A40000E60216841F480512160436002600649A4
:103A500048780A788978000240EA0240084370BD3D
:103A60007410002000300140000000201C000240C3
:103A70001004004004000140FEE3FFFF000C014081
:103A8000181002400CB430B583B00A4606A9029162
:103A9000044600250194009502AB01A9084878442A
:103AA0001E30FCF723FB019A157000284EBF044618
:103AB0000198041B204603B030BC5DF80CFB00BF2E
:103AC000DFD7FFFF38B5374C374D002205F57A7147
:103AD000204601F088FC2946204601F08CFC00209D
:103AE00032BD0020704700207047F8B504460868D2
:103AF0002E4E2546271817E00D2918BF0A2912D186
:103B000006F10801FFF70AFB0022327072602021E3
:103B100006F1080001F09EFC05E0202918BF2C29C1
:103B2000EAD15B1C73606D1CBD421ED229783078CF
:103B300050B93F2918BF652904D06C291CBF6F29D3
:103B40007029F0D13170EEE7A1F1300273680A2AD2
:103B5000E3D206F108004FF00A0C50F82320303968
:103B60000CFB021140F82310DDE70E4D21462846DC
:103B700001F041FC284601F05AFC0020F2BD10B5CE
:103B8000084CD4F818320A46D3F8141209B10120AF
:103B900010BD0146204601F026FC2046BDE810403D
:103BA00001F02FBC500E00202002002080170020C2
:103BB00038B5040001D1012032BD00F04DF818B92C
:103BC00000F046F801F03FF912E0022180F83D10C4
:103BD00001680A6842F001020A6004E003D10A6841
:103BE000520852000A60012180F83D100020704701
:103BF00002206870211D206800F03FF901206870E4
:103C0000002032BD38B5040001D1012032BD00F0E2
:103C100023F818B900F01CF801F01FFCE8E710B514
:103C200000F01EF801E000F01FF800F028FA20680C
:103C3000DFF87810884205D1DFF874100A6842F482
:103C400000420A60016841F001010160002010BDDE
:103C5000002129702046704704F13C0568787047C0
:103C600004460122206870470446080006D0042953
:103C700009D008290CD00C290FD013E02068C268A5
:103C800042F002020DE02068C26842F0040208E03F
:103C90002068C26842F0080203E02068C26842F06F
:103CA0001002C2602068012270470000002C014011
:103CB000442C014070B500F063F801D1022070BDC2
:103CC00000F065F832B1042A17D0082A28D00C2A4F
:103CD00039D04AE03068294600F0FEF83068816942
:103CE00041F0080100F048F821F0040181613168D9
:103CF0008A69286902438A6137E03068294600F002
:103D000010F93068816941F4006100F035F821F460
:103D1000806100F031F82A6941EA0221816124E0E2
:103D20003068294600F026F93068C16941F0080181
:103D300000F01EF821F00401C1613168CA692869E8
:103D40000243CA6111E03068294600F03BF930684F
:103D5000C16941F4006100F00BF821F4806100F0CA
:103D600007F82A6941EA0221C16100F015F870BD27
:103D7000C1613068C169704781613068816970478D
:103D8000064606F13C040D462078012870470120C4
:103D90002070022161707047012060700021217045
:103DA0000020704738B500F05CF801D1022032BD28
:103DB0000120207002226270DFF848022A689368AE
:103DC000034093600A68002A37D0102A37D0202A8F
:103DD00037D0302A37D0402A2BD0502A1ED0602A24
:103DE00020D0702A0BD0B2F5805F03D0B2F5005F0F
:103DF0000CD02CE028688168C908C9000CE000F0EC
:103E00002BF82868816841F0770105E000F024F87C
:103E10002868816841F48041816018E000F018F85A
:103E2000502111E0CA684968286800F004F960214F
:103E30000AE000F00DF8402106E0002104E0102126
:103E400002E0202100E03021286800F006F90EE0B1
:103E5000CA6849682868DFE0CB684A6889682868CA
:103E600003E1054605F13C04207801287047012054
:103E7000607000212170002032BD70B5624E036871
:103E8000624C634DB04218BFB0F1804F03D0A842DE
:103E900018BFA04209D14A6823F070031343B0420F
:103EA0001CBFB0F1804FA84201D0A04203D1CA6824
:103EB00023F4407313434A6923F0800313430360E0
:103EC000B0428B68C3620A68826202D10969514AB2
:103ED00011600123436170BD70B5026A520852003F
:103EE0000262066A446885690B688A6825F0730572
:103EF0001D4326F002061643434B98420BD1CA6875
:103F00004B6926F0080624F4407416438A691C4362
:103F100026F00406144344608561496841630662E3
:103F200070BD70B5026A384E22F010020262B042D3
:103F3000056A436884690A6824F4E64444EA022472
:103F40008A6825F0200545EA02150DD1CA684E6938
:103F500025F0800545EA02158A6923F4406316437B
:103F600025F0400543EA8603436084614968816324
:103F7000056270BD70B5026A22F480720262056A41
:103F80004368C4690A688E6824F0730414431E4AA7
:103F900025F40075904245EA06250DD1CA684E69A0
:103FA00025F4006545EA02258A6923F44053164347
:103FB00025F4806543EA06134360C4614968C16320
:103FC000056270BD70B5026A0F4E22F48052026223
:103FD000B042046A4268C3690D6823F4E64343EAC9
:103FE00005238D6824F4005444EA053404D14D6956
:103FF00022F4804242EA85124260C361496801644A
:10400000046270BD8800FFFF002C014000080040E2
:1040100000040040302C014010B5036A046A6408B3
:104020006400046223F00A03846924F0F00444EA83
:10403000021484612CE010B5036A23F010030362BC
:104040008369046A23F4704343EA023324F0A00432
:10405000836144EA0114046210BD826822F0700298
:10406000114341F007018160704710B5846824F462
:104070007F442143114341EA0321816010BD10B503
:10408000036A01248C40A343036202FA01F1036A2C
:104090001943016210BD000080B50748016841F076
:1040A000100101600320FEF7BAFE002001F0D6F9EE
:1040B00000F048FE002002BD002002402DE9F84338
:1040C0000246002000255E4BDFF8789101270E683C
:1040D000AF403E40BE4240F0AC804C686CB3012C17
:1040E00020D0022C23D0032C32D0112C1CD0122C27
:1040F00020D0DFF854E174451CBFDFF850E174456F
:104100001BD0DFF84CE174451CBFDFF848E1744573
:1041100013D0DFF844E174451CBFDFF840E174457B
:104120000BD016E0C86814E0C868001D11E0C8682C
:1041300008300EE0C8680C300BE0886808B904202D
:1041400007E0012819BF082057610820176100E027
:104150000020B6F5807F03D294464FEA850E05E035
:10416000A5F1080402F1040C4FEA840E0F27DCF8D5
:10417000008007FA0EF428EA040400FA0EFE4EEA64
:104180000404CCF800404C68E40052D5D9F8004053
:10419000DFF8CCE044F00104C9F800404FEA950C88
:1041A000D9F8004004F0010400944FEA8508009C0F
:1041B0005EF82C4008F00C0807FA08F724EA070715
:1041C000284CA24208BF00240ED0274CA24208BFB0
:1041D000012409D0254CA24208BF022404D0244C5B
:1041E000A2420CBF0324042404FA08F427434EF827
:1041F0002C70F7434C68E4031C684CBF34433C40CC
:104200001C604C68A4035C684CBF34433C405C6059
:104210004C68E4029C684CBF34433C409C604C6852
:10422000A40203D5DF683E43DE6002E0DE6837406B
:10423000DF606D1C0F2D7FF649AFBDE8F1830000F4
:10424000000401401810024000001110000012107C
:104250000000211000002210000031100000321078
:104260000800014000080140000C0140001001401E
:104270000014014010B5094C094900222046FEF700
:1042800032FE08492046FEF741FE0749204601F06C
:10429000A3F82046BDE81040FEF740BE500E0020B7
:1042A0006C010020580000205C010020F8B5044695
:1042B00000270026002C71D004F12405686820B97D
:1042C000AE602870204600F087FD204600F0BEF961
:1042D0006968CA065ED401005CD1696821F488511E
:1042E00041F0020169606368E269E1681343A26812
:1042F000B2F5807F14BF012A4FF480776269012AEA
:1043000043EA41030FD131B9A169491E490341F480
:1043100000610F4307E0696841F020016960A96806
:1043200041F00101A96021684A6822F469421743FB
:104330004F602268DFF8F01297680F401F439760C4
:10434000A168B1F5807F18BF012902D12669761EC8
:1043500036052168CA6A22F470021643CE622468C8
:10436000DFF8C812A2680A409A4208D10023AB6065
:10437000696821F0020141F001016960F2BD6868DD
:1043800020F0020040F010006860A86840F00100D2
:10439000A86003E0686840F0100068600120F2BD8A
:1043A000044604F12405287801287047012028706C
:1043B000204604E12DE9F047044689462068DFF8ED
:1043C0008012DFF87482DFF87472884218BF4045AB
:1043D000924603D1386810F4702F68D1FFF7E1FFDF
:1043E00008BF022065D0FFF7E1FF002806465BD139
:1043F0006968DFF84002014041F48071696020681B
:10440000404518D1396811F4702F14D0686840F411
:10441000801068603968480505D5696821F4005145
:1044200041F4805169606868C10446BFA86820F003
:10443000060000200DE0696821F480116960406881
:104440004105F0D5686820F4005040F48050686061
:10445000E9E7A860002129705346226A0FF2312053
:104460009062216A0FF27120C862216A0FF27120F6
:1044700008636FF00200226810604A462068816875
:1044800041F480718160206800F14C01206A01F0E4
:1044900036F8206800F00FF881680CBF41F4A001E5
:1044A00041F48011816003E00020287000E00126C3
:1044B0003046BDE8F087816801F46021B1F5602FD6
:1044C0007047F8B50A46002100F1240300911C78DA
:1044D000012C01D10220F2BD01241C701F27546859
:1044E00015680668072C08D2641E04EB8404D6F80D
:1044F00034C000F05EF8756312E00D2C08D2E41FA2
:1045000004EB8404D6F830C000F053F8356307E0BC
:104510000D3C04EB8404D6F82CC000F04AF8F56298
:1045200007271668946805680A2E08D30A3E06EB2A
:104530004606D5F80CC000F036F8EC6006E006EB55
:104540004606D5F810C000F02EF82C611468102C27
:1045500018BF112C23D10068394CA0421AD1394818
:1045600005682C021BD4056845F400050560106839
:10457000102814D12E4A344D1468B4FBF5F50A20E6
:1045800045430095009800281EBF0098401E0090EB
:10459000F8D104E00121586840F020005860002064
:1045A00018700846F2BDB7402CEA0707B4403C43F8
:1045B0007047A7402CEA0707A5403D43704738B530
:1045C00004460020009020688168CA072AD48168C8
:1045D0001D4A41F00101816015480168B1FBF2F20A
:1045E000009202E00098401E009000980028F9D147
:1045F00000F082F8054620688168C80712D400F0F0
:104600007BF8401B0328F6D304F124000022416804
:1046100041F010014160816841F001018160027048
:10462000012032BD002032BDFDF7E1FFFE0E1FFF6D
:1046300048000020FEF1FFFF002801400424014053
:10464000002401400824014040420F0038B50446D0
:1046500020688168CA0719D58168490849008160C6
:1046600000F04AF8054620688168C8070ED500F0BA
:1046700043F8401B0328F6D3A06A40F01000A06264
:10468000E06A40F00100E062012032BD002032BD4E
:10469000416A8A6A12F0500F1BD1886A40F4007098
:1046A00088620A68906800F46020B0F5602F04BF4B
:1046B000C86800280AD1886A20F480708862886AF5
:1046C000C20403D4886A40F001008862084601F001
:1046D0001CB8096A0A6B1047406A01F017B800005D
:1046E000406A816A41F040018162C16A41F004017F
:1046F000C16201F00CB8000001484068704700BF7B
:104700003C0000202DE9F8430646DFF8705430786D
:10471000C10748D5686800F00C00042807D0686815
:1047200000F00C0008280BD16868C10308D5286880
:10473000810338D57068002840F0BE80012067E111
:104740007068B0F5803F04D1286840F4803028605C
:1047500014E008B928680AE0B0F5A02F286806D14F
:1047600040F480202860296841F4803105E020F47D
:1047700080302860296821F480212960706868B140
:10478000FFF7BAFF04462868810300F19580FFF720
:10479000B3FF001B6528F6D3032039E1FFF7ACFF18
:1047A00004462868810340F18780FFF7A5FF001BBE
:1047B0006528F6D3F0E7FFF79FFF001B022840F2C1
:1047C000AA80E9E7306970B101213960FFF794FFF1
:1047D00004462868810700F1DC80FFF78DFF001B8D
:1047E0000228F6D9D8E73860FFF786FF0446296823
:1047F000880765D5FFF780FF001B0228F7D9CBE7B4
:104800000860FFF779FF0446686A810777D5FFF7EC
:1048100073FF001B0228F7D9BEE708B9286A09E030
:104820000528286A06D140F004002862286A40F072
:10483000010005E0400840002862286A20F00400DA
:10484000286241F28938F06868B1FFF755FF814668
:10485000286A810700F1AA80FFF74EFFA0EB09004C
:104860004045F5D398E7FFF747FF8146286A81075F
:1048700040F19C80FFF740FFA0EB09004045F5D3D5
:104880008AE7FFF739FF001B022840F2A28083E786
:10489000FFF732FF001B022840F2B5807CE700F0F2
:1048A000B9F804462868810140F1B180FFF724FF80
:1048B000001B0228F6D96FE73078DFF8CC72810749
:1048C0001BD5686810F00C0F09D0686800F00C0068
:1048D00008287FF477AF6868C1033FF573AF286895
:1048E000810703D5306901287FF428AF29687069F2
:1048F00021F0F80141EAC0012960317808071DD58F
:10490000B069DFF8881200283FF47AAF01220A600C
:10491000FFF7F2FE0446686A81077FF54CAFDFF8C7
:1049200060020268D2084FF47A71B2FBF1F1009193
:1049300000BF0098411E00280091F9D1307841074E
:1049400039D5E8690024C10009D4E86940F08050F5
:10495000E8610124E86900F0805000900098DFF8D9
:104960003082D8F80000C1051BD4D8F8000040F40C
:104970008070C8F80000FFF7BFFE8146D8F800003D
:10498000C1050ED4FFF7B8FEA0EB09006528F5D3EA
:1049900002E72868716920F0F80040EAC100286049
:1049A000ABE7F06801287FF438AF3FE71CB1E86956
:1049B00020F08050E861F06948B3696801F00C01AB
:1049C00008293FF4BBAE02287FF469AF00F022F85B
:1049D0000446286881013FF554AF306AB0F5803F46
:1049E00005D16968B06821F40031014369606A68E3
:1049F000306A716A22F4741202430A436A60012029
:104A000000F009F80446286881017FF541AF0020D5
:104A1000BDE8F28300203866FFF76EBE2DE9F8434B
:104A20005C4F05463868894600F00700484502D2C9
:104A300000F079F86BD12878504C810705D5626871
:104A4000A86822F0F002024362602978C80756D5B0
:104A50006868012802D121688A0303E002282168DE
:104A600002D18A0102D452E08A0750D561688908D0
:104A700040EA8100606041F28938FFF73DFE06465A
:104A8000686801280BD1606800F00C00042836D05B
:104A9000FFF732FE801B4045F5D303202DE00228AE
:104AA00037D1606800F00C00082828D0FFF724FEFA
:104AB000801B4045F5D3F0E72878410705D56268AB
:104AC000E86822F4E062024362602978080706D5AC
:104AD0006168286921F4605141EAC001616000F019
:104AE0002DF862682C49264BC2F30312895CC8403A
:104AF0001860002000F0B2FC0020BDE8F2833868A6
:104B000000F007008145D7D200F00DF8D4D0012085
:104B1000F3E7606810F00C0FF1D0FFF7EDFD801B9C
:104B20004045F6D3B9E73968C90849EAC101396097
:104B3000386800F0070048457047000017491148E1
:104B40000A6802F00C03082B00D0704710B500BFB4
:104B500014A4C2F38343D203E35C08D50968584325
:104B600014A3C1F340415A5CB0FBF2F010BD1846EB
:104B70000B49484310BD02480068704700100240CE
:104B80004800002000127A000000424280044242A5
:104B90000070004000200240185900080410024034
:104BA00000093D0002030405060708090A0B0C0D65
:104BB0000E0F1010010200002DE9FC410646354D94
:104BC0003078C10750D5A8690024C10009D4A8696C
:104BD00040F08050A8610124A86900F08050009046
:104BE00000982D4F3868C10519D4386840F480709A
:104BF0003860FFF781FD80463868C1050FD4FFF7A4
:104C00007BFDA0EB08006528F6D303203FE0FFF70B
:104C100073FDC01B41F28931884217D3F5E7E8697B
:104C200010F440701EBF716801F44071884210D0CA
:104C30001A49E86901220A60002320F440700B60E1
:104C4000E861C00705D5FFF757FD0746E86981070A
:104C5000DDD5EA69706822F440720243EA611CB152
:104C6000A86920F08050A8613078810705D52A68AE
:104C7000B06822F4404202432A603178C80605D564
:104C80002968F06821F48001014329600020BDE813
:104C9000F6810000041002400070004040044242CF
:104CA00030B590F83C20012A01D1022030BD01220C
:104CB00080F83C20CD688B684A688C6925F4407583
:104CC0001D4325F4806515430B680A69496925F47D
:104CD00000651D4325F48055154325F400550D430B
:104CE00025F480452543026825F400452C4354648F
:104CF000002180F83C10002030BD30B500F13C03AD
:104D00001A78012A01D1022030BD01221A70022432
:104D10005C700268546824F070045460046865682C
:104D20000A68154365600268946824F08004946002
:104D30000268946848680443946001215970002017
:104D4000187030BD80B56C48016841F00101016008
:104D5000026802F0010200920099426842F080521B
:104D60004260406800F08050009000980320FEF7F9
:104D700056F8002200216FF00B00FEF75DF80022CC
:104D800000216FF00A00FEF757F8002200216FF0B3
:104D90000900FEF751F8002200216FF00400FEF731
:104DA0004BF8002200216FF00300FEF745F80022C7
:104DB00000216FF00100FEF73FF8002200214FF0C4
:104DC000FF30FEF739F84D48016821F0E06141F00D
:104DD0000071016001BD000030B5044685B0206857
:104DE000474988422DD14448464D026842F400723A
:104DF00002600322006800F40070009000990192A4
:104E0000029201A94048FFF759F940482860002163
:104E10008020E8606960A9604FF480604FF4807181
:104E2000686129614FF480502021E861A96128461A
:104E300000F034FB18B1842138A0FEF727FB25626F
:104E40006C6205B030BD00B585B00068304A2A49B3
:104E5000904209D1086840F400600860096801F4D4
:104E600000610091009833E0B0F1804F1CD1486898
:104E700040F0010048600022486800F00100009006
:104E80004FF400410098234801910292039201A936
:104E9000FFF714F91948016821F4407141F0E0610D
:104EA00041F48071016013E01B4A904210D14868C0
:104EB00040F0020048600022486800F002000090C4
:104EC000002100981D20FDF7B7FF1D20FDF7D1FF41
:104ED00005B000BD00680E49884200D07047F8B5A3
:104EE00002214FF4807201910391009269460948B2
:104EF000FFF7E4F805B000BD1810024004000140BF
:104F000000240140FC160020000C01400800024073
:104F1000002C01400008014000040040443A5C734A
:104F200072635C73746D33325C70726F702D626C7F
:104F30002D746573745C5372635C73746D33326685
:104F40003178785F68616C5F6D73702E630000006C
:104F500010B5044609482060211D04F50170221D8A
:104F600001604260231D8360002101730161002202
:104F700004F5067000F0CCFB204610BD985A0008DE
:104F80002DE9F047054605F5017789463968A2EB1A
:104F900009004FEAE00A05F5037858E8003F7C680D
:104FA000C81A1C1BC010E410401E10F03F0017D0A0
:104FB0005045D8BF824603EBCA0C674538BFACF5F5
:104FC000007C48E800C00028E7D1FE1AF6105645DC
:104FD0000EDB4FEACA0249461846FCF775F914E0A1
:104FE0002B681C682846A047BFF32F8F48461BE05C
:104FF000F20049461846FCF767F9AAEB0602D20010
:1050000009EBC601281DFCF74FF909EBCA0654B994
:1050100058E8001F796048E800100028F8D1296896
:105020000A68284690473046BDE8F08730B52A49DF
:105030002A4A09682A4BCC0302D58D0358BF134670
:10504000C1F383440F2C0CBF1024A41C63434360A2
:1050500011F00C05046818BF042D03D0082D08BFFB
:105060001C4600E014460B0A03F007031B1F0460F4
:105070002246032B82600BD8DFE803F00806040207
:10508000102306E0082304E0042302E0022300E0EA
:105090000123C90A01F00701091F03290BD8DFE822
:1050A00001F008060402102106E0082104E00421B2
:1050B00002E0022100E00121B2FBF3F2C260012B09
:1050C00018BF5200426101298268B2FBF1F202610D
:1050D00018BF5200826130BD0410024000127A00F5
:1050E00000093D00F0B5434C4348444B444D4462F5
:1050F0004FF08046434C436305628462C662891860
:10510000EF6947F00607EF611731AE6946F4805644
:10511000AE61A5693C4E25F4407545F48075A561E6
:10512000256A45F020052562A56825F0770545F03C
:105130006605A560256825F0090545F00805256088
:10514000656825F0700545F040056560A56925F0A6
:10515000F70545F07005A56162638569B5FBF6F654
:10516000761EA662E162012161614FF00051226961
:1051700022F009022261254A1160E568244945F0C0
:105180000105E5608269234CB2FBF4F4641E8C6275
:105190000122CA628C6824F0770444F025048C60F4
:1051A0004A638C6924F0F70444F070048C610A6A45
:1051B00042F001020A6201220C6844F001040C6012
:1051C0004A6180211960D86003211348134A98600E
:1051D000596040F24160146811490C400443146066
:1051E000546844F001045460186840F001001860ED
:1051F000F0BD00BF00000140000000201C00024084
:10520000001002400004004020A1070000E100E07F
:105210000008004040420F000C30014000300140C7
:10522000B8F8FFFF70B506460025307C30B94FF462
:10523000007300F031F84FF4007303E0402300F0F6
:105240002BF84023022201213046FDF73CFA0823C7
:10525000032282213046FDF736FA4FF40770FDF73E
:10526000A2FA040006F5067008BF0125046011D0FB
:1052700040680168884704F501700561456102686E
:10528000307C00280CBF4FF40073402301213046CE
:10529000FDF778FA284670BD022281213046FDF7DD
:1052A00012BA10B504468121FDF71DFA01212046EE
:1052B000FDF719FA82212046FDF715FA04F5067468
:1052C000206838B16068416888472068FDF778FA3F
:1052D00000202060002010BDF8B50D46044604F5FE
:1052E000067329781E6811F060001ED0202824D192
:1052F000EA88A2B16878090606D55B689F683146DE
:10530000B847EA88314615E006F500710870E8886C
:1053100048703146EA882046FEF7CFFA0DE05B6818
:1053200068789C682946A04707E068780A2804D175
:10533000012224492046FEF7B0FA0020F2BDD0F841
:10534000180220B10021C0F814120020704702207A
:10535000704770B500F50674256805F50176FDF710
:105360001EFAB060206838B162683068D36805F50D
:1053700003719847002070BD022070BD10B500F584
:10538000067043680168002B1EBF01F50074207889
:10539000FF2804D062789B689847FF202070002087
:1053A00010BD432101800848704743210180074810
:1053B000704743210180064870470A210180054853
:1053C00070470000AC170020D4000020900000209F
:1053D000180100204C0000200246022011B1C2F842
:1053E0001C1200207047D0F8180200F5027001600E
:1053F000826000207047D0F81802C0F80412002024
:10540000704710B5D0F8181279B101F50272D16861
:1054100049B90124D4608121936812689BB2FDF7D9
:10542000A4F9002010BD012010BD022010BD80B5E0
:10543000D0F8181261B1D1F80422017C00290CBF08
:105440004FF4007340230121FDF79CF9002002BDB9
:10545000022002BD002200F05FB9704738B50D4D43
:105460000D4B2A7804464FF47A711868B1FBF2F2BA
:10547000B0FBF2F0FDF707FD50B9102C08D2002266
:1054800021464FF0FF30FDF7D7FCAC60002032BD65
:10549000012032BD3C0000204800002030B508B992
:1054A000012030BD0468DFF81C120919142200F134
:1054B0002803B1FBF2F292009A610222DFF808128F
:1054C000596180F821202568416882686FF30D15C5
:1054D0000D43C168154302690D4341691543826953
:1054E0000D43C16915430D43256000241C605C60B9
:1054F0009C60DC601C6100F03CF8002030BDF8B519
:105500000446002594F82000012801D10220F2BDB4
:1055100094F821600120012E84F8200024D102207B
:1055200004F12C0684F82100F560206807687F08E4
:105530007F000760204600F0D7F82168306820B16E
:105540000A6842F00E020A6008E0086820F00400D1
:1055500008602068016841F00A0101602068016864
:1055600041F00101016002E084F820500225284644
:10557000F2BD012280F8212080F8204070472DE9FB
:10558000F84F00F1280204275169554BD1F800E08B
:10559000056854492E68D2F818A0504CDFF83881BD
:1055A000DFF83091DFF828B1DFF820C107FA0AF7F9
:1055B0001EEA070F2DD077072BD52E68B60603D429
:1055C0002E6826F004062E600568654508BF042392
:1055D00018D05D4508BF402314D04D4508BF4FF497
:1055E00080630FD0454508BF4FF480430AD0A542E1
:1055F00008BF4FF4802305D09D420CBF4FF48003B9
:105600004FF080630B605168002958D0BDE8F44F1B
:105610000847022707FA0AF71EEA070F32D0B70732
:1056200030D52E68B60606D42E6826F00A062E60FF
:10563000012580F821500568654508BF022318D070
:105640005D4508BF202314D04D4508BF4FF40073BB
:105650000FD0454508BF4FF400530AD0A54208BFFC
:105660004FF4003305D09D420CBF4FF400134FF0B0
:1056700000730B60002180F820101168F9B1BDE8BB
:10568000F44F0847082101FA0AF11EEA010F16D06B
:10569000310714D52B6823F00E032B600124916988
:1056A00053698C405C600121116180F82110002158
:1056B00080F82010916811B1BDE8F44F0847BDE8AB
:1056C000F18F0000F8FFFDBF00000240080002401B
:1056D0001C000240300002404400024058000240DA
:1056E0006C0002400400024070B5046CC66B0125DA
:1056F000A5407560046863604068102802D1A2600C
:10570000E16070BDA160E26070BD70477047704796
:10571000016042607047000000B500BF130096466C
:105720009446103928BFA0E80C50FAD85FEA417CB3
:1057300028BF0CC048BF40F8042BC90728BF20F879
:10574000022B48BF00F8012B00BD0000122008808A
:105750000F487047042008800E4870472DE910401C
:1057600000F012F813A004E02DE9104000F00CF84E
:1057700016A02146FEF76EF8204610BD2DE9104018
:1057800000F002F816A0F4E70A46034C7047000048
:10579000880100209C010020B41400202DE9104055
:1057A000FFF7F2FF12A0E4E72DE91040FFF7ECFF4E
:1057B00012A0DEE753544D3332205669727475617E
:1057C0006C20436F6D506F727400000053544D692C
:1057D00063726F656C656374726F6E6963730000EA
:1057E0003030303030303030303031410000000067
:1057F00043444320436F6E6669670000434443207F
:10580000496E746572666163650000002DE9F044BD
:10581000054605F50174606900283BD0207B00280F
:1058200038D10121217321686068401AC01010F03E
:105830003F002DD001EBC006A64205F5067A0ED337
:105840002246504600F02CF80746A7420CD3B4423B
:1058500003D2A6F50072291D02E02F1D04E0324696
:10586000504600F01DF80746291D8F4228BFBE4252
:1058700001D3A74206D33B220749084800F014F899
:10588000AFF300802760206910B101680A68904773
:1058900000202073BDE8F0846C5900089C59000872
:1058A000034658681B68184700B583B00091019201
:1058B00002906A4604491820ABBE002801D1FCF7CB
:1058C00040FA03B000BD00BF1010020010B50E4A30
:1058D0000E49106840F00100106053680C480B40FE
:1058E0005360146804401460116821F48021116031
:1058F0004FF41F01506820F4FE00506091604FF09B
:105900000060044A106010BD001002400000FFF863
:10591000FFFFF6FE08ED00E00000000000000000C0
:1059200001020304060708097047FEE7FEE7FEE7E9
:10593000FEE770477047704780B500F00FF8BDE88C
:105940000140FDF7CDBA0348FFF719BE0248FCF746
:1059500021BB0000FC160020F009002002494A6823
:10596000087882184A6070473C000020443A5C7313
:1059700072635C73746D33325C70726F702D626C25
:105980002D746573745C455741524D2F2E2E2F494F
:105990006E635C71756575652E68000073203E3D11
:1059A00020646174612026262073203C3D20656EB2
:1059B000642026262073203C2064617461202B2003
:1059C00053495A450000000010B507497944183181
:1059D000064C7C44163404E00A68081D11448847CC
:1059E0000146A142F8D110BD0800000028000000C7
:1059F0007FB7FFFF9015000020020020000000008C
:105A000067B6FFFF500100000E02000000000020FA
:105A10000500000010B50446044979440E310448DD
:105A200078440C3000F006F8204610BD2801000034
:105A30002001000038B504460D46AC4205D0206870
:105A400020188047241DAC42F9D131BD00F00DF87B
:105A5000002801D0FFF7B8FFAFF300800020AFF3BC
:105A60000080FDF78DFB00F002F80120704700F088
:105A700001B8000007463846FCF71EFAFBE70000B5
:105A80000148804701480047CD5800089D5A00084A
:105A900000000000000000000D580008AFF3008077
:105AA000AFF30080FFF7D2FF00002E004300FFF7A6
:105AB000FEBFFFF7FEBFFFF7FEBFFFF7FEBFFFF71A
:105AC000FEBFFFF7FEBFFFF7FEBFFFF7FEBFFFF70A
:105AD000FEBFFFF7FEBFFFF7FEBFFFF7FEBFFFF7FA
